:100000000C9421040C940B060C94E4050C94490404
:100010000C9449040C9449040C9449040C9449042C
:100020000C9449040C9449040C9449040C9449041C
:100030000C9449040C9449040C9449040C9449040C
:100040000C94D2170C9449040C9458060C94320664
:100050000C9449040C948A060C9449040C944904A9
:100060000C9449040C9449041910901090109010AD
:1000700090104E1090100710901090106410901077
:1000800090109010901090106710801090109010A9
:10009000851090109A1005A84CCDB2D44EB93836C0
:1000A000A9020C50B9918688083CA6AAAA2ABE00CB
:1000B0000000803F4E6F20454550524F4D207365E4
:1000C0007474696E6720666F756E642E2E2E75735C
:1000D000696E672064656661756C742076616C7505
:1000E0006573004552524F5220454550524F4D20A6
:1000F000636F6E66696720696E76616C69642E2E27
:100100002E7573696E672064656661756C74207600
:10011000616C756573004C6F6164696E672045455D
:1001200050524F4D20636F6E6669672E2E2E000170
:100130000402000302048A050506C30B2019421EAF
:100140002C25802E902FAA302D370038003C8F3D73
:10015000106F2000456E746572696E6720636F6E64
:10016000666967206D6F64652E2E2E00272B2B2B62
:1001700027207468656E205B456E7465725D206E25
:100180006F7720746F20656E74657220636F6E6682
:100190006967206D6F64652E2E2E357300435434CD
:1001A0002064657465637465642C20693443616CF4
:1001B0003A004354332064657465637465642C208D
:1001C000693343616C3A004354322064657465635B
:1001D0007465642C20693243616C3A0043543120C9
:1001E00064657465637465642C20693143616C3A9D
:1001F000004E4F2043542773206465746563746513
:100200006400555341205663616C206163746976C4
:10021000653A200052464D20696E742E2E2E002025
:1002200047726F75703A20003931354D487A003881
:1002300036384D487A003433334D487A00204E6FBB
:1002400064653A200052464D36394357004F706579
:100250006E456E657267794D6F6E69746F722E6F41
:10026000726700656D6F6E547820563320456D6F50
:100270006E4C6962434D20436F6E74696E756F7585
:1002800073204D6F6E69746F72696E672056002C13
:1002900070756C73653A002C54333A002C54323A22
:1002A000002C54313A002C45343A002C45333A00A6
:1002B0002C45323A002C45313A002C50343A002C6F
:1002C00050333A002C50323A002C50313A002C5620
:1002D000726D733A004D53473A004143206D697384
:1002E00073696E67200041432070726573656E7498
:1002F000200069344C656164203D2000693443610D
:100300006C203D200069334C656164203D2000690C
:100310003343616C203D200069324C656164203DAF
:100320002000693243616C203D200069314C6561D9
:1003300064203D2000693143616C203D20007643FC
:10034000616C203D200043616C6962726174696F69
:100350006E3A00446F6E652E2E2E6E657720636FA9
:100360006E66696720736176656420746F20454509
:1003700050524F4D2E20526573657474696E67201C
:10038000696E20357300446F6E652E2E2E656D6F7D
:100390006E54782077696C6C207265736574207573
:1003A00073696E672064656661756C74207365742B
:1003B00074696E677320696E2035730045726173CE
:1003C000696E6720454550524F4D2E2E2E0020005D
:1003D000656D6F6E54782056332E3420456D6F6EE8
:1003E0004C6962434D20436F6E74696E756F75730F
:1003F000204D6F6E69746F72696E672056005D00E4
:100400005B47726F757020005D003931354D487A59
:10041000003836384D487A003433334D487A005B23
:10042000467265713A20005D005B4E6F6465200086
:100430000000000023002600290004040404040432
:100440000404020202020202030303030303010283
:100450000408102040800102040810200102040852
:1004600010200A417661696C61626C6520636F6D72
:100470006D616E647320666F7220636F6E6669676C
:1004800020647572696E672073746172742D757063
:100490003A0A20203C6E6E6E3E67202020202D20E0
:1004A000736574204E6574776F726B2047726F7539
:1004B000700A20203C6E6E3E6920202020202D20D6
:1004C000736574206E6F64652049442028737461DD
:1004D0006E64617264206E6F64652069647320616C
:1004E000726520312E2E3330290A20203C6E3E6268
:1004F0002020202020202D20736574204D487A2054
:1005000062616E64202834203D203433332C20383F
:10051000203D203836382C2039203D2039313529EE
:100520000A2020722020202020202020202D207230
:100530006573746F72652064656661756C74732091
:1005400028657261736520454550524F4D290A2038
:1005500020732020202020202020202D2073617651
:100560006520636F6E66696720746F204545505241
:100570004F4D0A2020762020202020202020202DD2
:100580002053686F77206669726D77617265207697
:10059000657273696F6E0A20207820202020202049
:1005A0002020202D206578697420616E6420636F9F
:1005B0006E74696E75650A0A417661696C61626C78
:1005C0006520636F6D6D616E6473207768656E2062
:1005D00072756E6E696E673A0A20206B3C783E2019
:1005E0003C79792E793E203C7A7A2E7A3E0A202078
:1005F000202020202020202020202D2043616C69F5
:10060000627261746520616E20616E616C6F6775E6
:100610006520696E707574206368616E6E656C3AF2
:100620000A2020202020202020202020202D20787B
:10063000203D20612073696E676C65206E756D6565
:1006400072616C3A2030203D20766F6C7461676572
:100650002063616C6962726174696F6E2C20312055
:100660003D206374312063616C6962726174696FEB
:100670006E2C2032203D206374322063616C6962ED
:10068000726174696F6E2C206574630A20202020CB
:1006900020202020202020202D2079792E79203D17
:1006A000206120666C6F6174696E6720706F696E7F
:1006B00074206E756D62657220666F722074686555
:1006C00020766F6C746167652F63757272656E74E6
:1006D0002063616C6962726174696F6E20636F6E12
:1006E0007374616E740A2020202020202020202096
:1006F00020202D207A7A2E7A203D206120666C6F92
:100700006174696E6720706F696E74206E756D62BA
:10071000657220666F722074686520706861736509
:100720002063616C6962726174696F6E20666F72BA
:10073000207468697320632E742E20287A206973D0
:10074000206E6F74206E65656465642C206F722066
:1007500069676E6F72656420696620737570706C6E
:100760006965642C207768656E2078203D203029EB
:100770000A2020202020202020202020202D20653D
:100780002E672E206B30203235362E380A2020205E
:100790002020202020202020202D2020202020204C
:1007A0006B312039302E3920322E30300A20206C27
:1007B0002020202020202020202D206C69737420F0
:1007C00074686520636F6E6669672076616C756515
:1007D000730A2020732020202020202020202D207C
:1007E0007361766520636F6E66696720746F20455C
:1007F0004550524F4D0A0000000000240027002AF7
:100800000000000000250028002B00000000080068
:1008100002010000030407000000000000000000C7
:100820005EBCE2613FDD83C29C7E20A3FD1F4100D0
:100830009D23BE46DB65F88C11AF32CA57E97400C0
:10084000652C11241FBECFEFD8E0DEBFCDBF25E061
:10085000A6EBB1E001C01D92A939B207E1F711E0A2
:10086000A0E0B1E0E2EFF5E602C005900D92A63BF4
:10087000B107D9F714E0C1E2D4E004C02197FE012A
:100880000E947F2EC032D107C9F70E941C180C9419
:10089000F7320C9400000895CF92DF92EF92FF920E
:1008A0000F931F93CF93DF936C017A018B01C0E00C
:1008B000D0E0CE15DF0581F0D8016D918D01D60114
:1008C000ED91FC910190F081E02DC6010995892BF5
:1008D00011F02196EECF7E01C701DF91CF911F91DC
:1008E0000F91FF90EF90DF90CF900895089580E0F2
:1008F00090E00895FC01538D448D252F30E0842F26
:1009000090E0821B930B541710F0CF960895019737
:100910000895FC01918D828D981761F0828DDF0121
:10092000A80FB11D5D968C91928D9F5F9F73928FE2
:1009300090E008958FEF9FEF0895FC01918D828DD7
:10094000981731F0828DE80FF11D858D90E00895A4
:100950008FEF9FEF0895FC01918D228D892F90E0FC
:10096000805C9F4F821B91098F739927089588ECB3
:1009700094E00E94AB0421E0892B09F420E0822F4F
:100980000895FC01848DDF01A80FB11DA35ABF4F4C
:100990002C91848D90E001968F739927848FA6897E
:1009A000B7892C93A089B1898C91837080648C93D2
:1009B000938D848D981306C00288F389E02D808181
:1009C0008F7D80830895EF92FF920F931F93CF93B3
:1009D000DF93EC0181E0888F9B8D8C8D981305C08F
:1009E000E889F989808185FD26C0F62E0B8D10E0FF
:1009F0000F5F1F4F0F731127E02E8C8DE8120CC074
:100A00000FB607FCFACFE889F989808185FFF5CF19
:100A1000CE010E94C104F1CF8B8DFE01E80FF11DC4
:100A2000E35AFF4FF0829FB7F8940B8FEA89FB8956
:100A3000808180620AC09FB7F894EE89FF89608345
:100A4000E889F98980818370806480839FBF81E019
:100A500090E0DF91CF911F910F91FF90EF9008955B
:100A6000CF93DF93EC01888D8823C9F0EA89FB8955
:100A7000808185FD05C0A889B9898C9186FD0FC04C
:100A80000FB607FCF5CF808185FFF2CFA889B98921
:100A90008C9185FFEDCFCE010E94C104E7CFDF919D
:100AA000CF91089580E090E0892B29F00E94B7044F
:100AB00081110C94000008950E94D9320F931F9366
:100AC0008091000190910101A0910201B091030178
:100AD000892B8A2B8B2BD9F10E94C61700917404A5
:100AE000109175042091760430917704DC01CB01DC
:100AF000801B910BA20BB30B00910001109101011F
:100B00002091020130910301081719072A073B07BA
:100B100098F48091180290911902A0911A02B09154
:100B20001B020196A11DB11D80931802909319021A
:100B3000A0931A02B0931B020E94C617609374041C
:100B400070937504809376049093770413C080911A
:100B5000180290911902A0911A02B0911B020196FD
:100B6000A11DB11D8093180290931902A0931A023F
:100B7000B0931B021F910F9108950F931F93CF9372
:100B8000DF93EC0188819981009729F02A813B81CC
:100B90002617370788F48B016F5F7F4F0E9413324F
:100BA000009761F0998388831B830A832C813D81A0
:100BB000232B11F4FC01108281E001C080E0DF9161
:100BC000CF911F910F9108951F920F920FB60F9220
:100BD00011242F933F934F935F936F937F938F9342
:100BE0009F93AF93BF93EF93FF93E0917201F091C6
:100BF00073010995FF91EF91BF91AF919F918F91F3
:100C00007F916F915F914F913F912F910F900FBE08
:100C10000F901F9018951F920F920FB60F921124EC
:100C20002F933F934F935F936F937F938F939F93F4
:100C3000AF93BF93EF93FF93E0917001F091710137
:100C40000995FF91EF91BF91AF919F918F917F9106
:100C50006F915F914F913F912F910F900FBE0F9029
:100C60001F9018951F920F920FB60F9211242F9379
:100C70003F934F935F936F937F938F939F93AF9324
:100C8000BF93EF93FF9388EC94E00E94C104FF911F
:100C9000EF91BF91AF919F918F917F916F915F91F4
:100CA0004F913F912F910F900FBE0F901F9018956D
:100CB0001F920F920FB60F9211242F938F939F9331
:100CC000EF93FF93E091D804F091D9048081E091F3
:100CD000DE04F091DF0482FD12C090818091E10476
:100CE0008F5F8F732091E204821751F0E091E1044D
:100CF000F0E0E853FB4F958F8093E10401C08081C1
:100D0000FF91EF919F918F912F910F900FBE0F90B8
:100D10001F9018951F920F920FB60F9211242F92C9
:100D20003F924F925F926F927F928F929F92AF927B
:100D3000BF92CF92DF92EF92FF920F931F932F9368
:100D40003F934F935F936F937F938F939F93AF9353
:100D5000BF93EF93FF93CF93DF93CDB7DEB7259784
:100D6000DEBFCDBF20907800309079008091730471
:100D7000E2E0E80F20916E0130916F014E2F50E0BC
:100D8000241735071CF4E1E0E80FE21BF0E0E95F0F
:100D9000FE4F8081805C80937C008091E401909183
:100DA000E501A091E601B091E7010196A11DB11DF9
:100DB0008093E4019093E501A093E601B093E701ED
:100DC0008091730481112EC48091710490917204FA
:100DD0009093700480936F048091880590918905A9
:100DE000969587959101281B390BC90130937204A0
:100DF0002093710420916D0430916E04A9015695E1
:100E0000479556954795241B350BAC0197FF04C0B9
:100E100044275527481B590B240F351F30936E0468
:100E200020936D0441E060918605709187056217FB
:100E3000730708F040E04093D702181619063CF4F7
:100E400081E090E090936C0480936B0404C0109256
:100E50006C0410926B0420916B0430916C048091AF
:100E60005504909156042817390731F08091BB033F
:100E70008F5F8093BB0302C01092BB038091BB03C2
:100E8000833030F01092BB03309358042093570402
:100E90008091BE038823B1F087E080937A0080912F
:100EA0007A00806880937A0080917A0080937A003B
:100EB00080917A0080937A0080917A0080937A0002
:100EC0001092BE038091D70260916E0170916F0104
:100ED000882309F4BBC120915704309158048091B4
:100EE0005504909156042130310509F0A7C10197AE
:100EF00009F426C38091BC039091BD0301969093A1
:100F0000BD038093BC0320910601222309F46EC027
:100F10000A970CF46BC0109206011092BD03109258
:100F2000BC0303E214E0ABEFB3E0F3EDEF2EF3E02C
:100F3000FF2E2FEB33E080E090E086179707B4F5A3
:100F4000F801108211821282138214821582168295
:100F50001782085F1F4F1C9211961C9211971296D0
:100F60001C92129713961C92139714961C92149726
:100F700015961C92159716961C92169717961C920A
:100F800017971896F7011082118212821382148229
:100F9000158216821782F8E0EF0EF11CF90111920A
:100FA0001192119211929F010196C7CF10925D0488
:100FB00010925E0410925F0410926004109261041B
:100FC0001092620410926304109264041092590407
:100FD00010925A0410925B0410925C041092670401
:100FE000109268041092690410926A048091BC0304
:100FF0009091BD032091E2013091E30182179307A4
:1010000039F420910601211103C021E02093D6027A
:101010002091EC013091ED01821793070CF490C2FE
:101020008091060181118CC21092BD031092BC0305
:1010300023E234E03B832A83ABEFB3E043ED53E09C
:101040005D834C830FEB13E0C90140E050E046178D
:1010500057070CF0A4C0FC016080718082809380EF
:10106000C480D580E680F78008969A01F3E0220FCD
:10107000331FFA95E1F7F901EC56FD4F608271825A
:1010800082829382C482D582E682F7826C90119626
:101090007C90119712968C90129713969C901397B0
:1010A0001496CC9014971596DC9015971696EC90A4
:1010B00016971796FC901797F901E459FD4F608237
:1010C000718282829382C482D582E682F782EA812B
:1010D000FB81108211821282138214821582168281
:1010E00017823896FB83EA831C9211961C92119703
:1010F00012961C92129713961C92139714961C9298
:10110000149715961C92159716961C92169717967B
:101110001C921797EC81FD816080718082809380A2
:10112000C480D580E680F780F901EC5BFD4F6082DA
:10113000718282829382C482D582E682F782EC81B8
:10114000FD8110821182128213821482158216820E
:101150001782F80140805180628073805301420100
:10116000BB0C8808982C5401245E3D4FF901408245
:101170005182628273828482858286828782F801AC
:1011800011921192119211928F014F5F5F4F189639
:101190002C813D81285F3F4F3D832C8358CF809128
:1011A000590490915A04A0915B04B0915C04AC0185
:1011B000BD01770F440B542FBA018093C102909365
:1011C000C202A093C302B093C4024093C5024093ED
:1011D000C6024093C7024093C80270915D046091BB
:1011E0005E0450915F04409160043091610420914D
:1011F000620490916304809164047093C9026093C7
:10120000CA025093CB024093CC023093CD0220937C
:10121000CE029093CF028093D00210925D04109280
:101220005E0410925F0410926004109261041092A8
:10123000620410926304109264045FC1892B09F464
:101240007FC110926604109265047AC18091E40116
:101250009091E501A091E601B091E7010091DE01D6
:101260001091DF012091E0013091E1010817190789
:101270002A073B0748F42091EF01211105C021E026
:101280002093D6022093EF010091E8011091E9012B
:101290002091EA013091EB01081719072A073B0753
:1012A00008F04EC11092E4011092E5011092E6019F
:1012B0001092E70181E0809306011092BD03109225
:1012C000BC0383E294E04BEF642E43E0742EE3ED25
:1012D000F3E00FEB13E040E050E0461757070CF047
:1012E000BEC02A0123E0440C551C2A95E1F7920167
:1012F0002C563D4FD9011C9211961C9211971296B3
:101300001C92129713961C92139714961C92149782
:1013100015961C92159716961C92169717961C9266
:10132000920124593D4FD9011C9211961C9211979C
:1013300012961C92129713961C92139714961C9255
:10134000149715961C92159716961C921697179639
:101350001C92DC011C9211961C92119712961C9201
:10136000129713961C92139714961C921497159625
:101370001C92159716961C92169717961C92089613
:10138000D3011C9211961C92119712961C921297DF
:1013900013961C92139714961C92149715961C92F0
:1013A000159716961C92169717961C92B8E06B0E1E
:1013B000711C80809180A280B380C480D580E6803B
:1013C000F78092012C5B3D4FD9018C9211969C9233
:1013D00011971296AC9212971396BC92139714968B
:1013E000CC9214971596DC9215971696EC92169758
:1013F0001796FC9210821182128213821482158237
:10140000168217823896D801CD90DD90ED90FC9031
:1014100046015701BB0C8808982C5401D201A45EE8
:10142000BD4FCC921196DC9211971296EC921297C6
:101430001396FC92139714968C92149715968C928F
:10144000159716968C92169717968C92D8011D9226
:101450001D921D921D928D014F5F5F4F3ECF709187
:101460005D0460915E0450915F044091600430918E
:1014700061042091620490916304809164047093EC
:10148000C9026093CA025093CB024093CC023093BE
:10149000CD022093CE029093CF028093D00210927F
:1014A0005D0410925E0410925F041092600410922A
:1014B000610410926204109263041092640480919B
:1014C000590490915A04A0915B04B0915C04AC0162
:1014D000BD01770F440B542FBA018093C102909342
:1014E000C202A093C302B093C4024093C5024093CA
:1014F000C6024093C7024093C8021092590410924A
:101500005A0410925B0410925C04809167049091DD
:101510006804A0916904B0916A048093D102909309
:10152000D202A093D302B093D40210926704109217
:1015300068041092690410926A0481E08093D502D5
:101540008091670490916804A0916904B0916A0445
:101550000196A11DB11D8093670490936804A09328
:101560006904B0936A0480916504909166040196C1
:101570009093660480936504E0917104F091720485
:101580009F01DF010E94852E6B017C01FF0CCC08BE
:10159000DC2C76019B01AC016C2D7C2D8C2D9C2DBF
:1015A000A0905D04B0905E04C0905F04D090600491
:1015B000E0906104F090620400916304109164046F
:1015C0000E94942E20935D0430935E0440935F0448
:1015D0005093600460936104709362048093630489
:1015E00090936404CF01FF0FAA0BBB0B40915904E9
:1015F00050915A0460915B0470915C04840F951FB4
:10160000A61FB71F8093590490935A04A0935B04BC
:10161000B0935C04809157049091580490935604C1
:1016200080935504E0917304E983E0916E01F09199
:101630006F01FB83EA83F981FF2309F4FFC04F2E7A
:10164000512CEA81FB81E415F5050CF4F7C09201F9
:10165000215031094901F901E454FD4F36E02316C8
:1016600031040CF4E3C081E08083F401EE0FFF1F2E
:10167000E55BFB4F8091880590918905969587954C
:1016800060807180681A790A71826082A0916F040B
:10169000B0917004F40133E0EE0FFF1F3A95E1F7CB
:1016A000AF014D5D5B4F5D834C8393010E94852E9E
:1016B0006B017C01FF0CCC08DC2C76019B01AC019A
:1016C0006C2D7C2D8C2D9C2DAC81BD81AC90119608
:1016D000BC9011971296CC9012971396DC901397AA
:1016E0001496EC9014971596FC90159716960C91FD
:1016F000169717961C9117970E94942E2C9311966B
:101700003C93119712964C93129713965C931397F0
:1017100014966C93149715967C93159716968C9344
:10172000169717969C93A0917104B09172049F0133
:1017300025503C4F3D832C8393010E94852E6B01E5
:101740007C01FF0CCC08DC2C76019B01AC016C2DDC
:101750007C2D8C2D9C2DAC81BD81AC901196BC90C4
:1017600011971296CC9012971396DC9013971496BB
:10177000EC9014971596FC90159716960C91169769
:1017800017961C9117970E94942E2C9311963C93B8
:10179000119712964C93129713965C931397149685
:1017A0006C93149715967C93159716968C931697B1
:1017B00017969C93ED52FC4F9301D3010E94852E06
:1017C0006B017C01FF0CCC08DC2C76019B01AC0189
:1017D0006C2D7C2D8C2D9C2DA080B180C280D3805F
:1017E000E480F580068117810E94942E2083318346
:1017F000428353836483758386839783F401EE0F5A
:10180000FF1FEE0FFF1FE154FC4FC301770CAA0B23
:10181000BB0B4081518162817381840F951FA61F8C
:10182000B71F80839183A283B38301C01082F2012A
:10183000EE0FFF1FE75BFB4F3182208259805394EC
:1018400050927304852D90E0EA81FB81E817F90737
:1018500014F4109273040F900F900F900F900F904C
:10186000DF91CF91FF91EF91BF91AF919F918F91B8
:101870007F916F915F914F913F912F911F910F91A8
:10188000FF90EF90DF90CF90BF90AF909F908F90A0
:101890007F906F905F904F903F902F900F900FBE72
:1018A0000F901F901895CF92DF92EF92FF92CF93F7
:1018B000DF93EC019093220180932101BC01990FE9
:1018C000880B990B0E94BA2C209150013091510144
:1018D00040915201509153010E94192D0E94812F75
:1018E0006B017C017093ED016093EC018091050127
:1018F000807790E025E0959587952A95E1F723E09C
:1019000030E0A901481B590B20EF32E002C03595A9
:1019100027954A95E2F7DE010E94852E28E13CEFEB
:101920004FEF5FEF0E94602E81E0C81AD1082C0DA6
:101930003D1D3093E3012093E201DF91CF91FF90B1
:10194000EF90DF90CF9008952F923F924F925F9249
:101950006F927F928F929F92AF92BF92CF92DF92BF
:10196000EF92FF920F931F93CF93DF93CDB7DEB724
:1019700027970FB6F894DEBF0FBECDBF8D832A0127
:101980003B0109831A832B833C8360912101709171
:101990002201072E000C880B990B0E94BA2C4B01D8
:1019A0005C0180916E0190916F01019628E6289F5D
:1019B000B001299F700D1124072E000C880B990B84
:1019C0000E94BA2C2BED3FE049EC50E40E94192D07
:1019D000A50194010E94192D20E034E244E759E466
:1019E0000E940F2F6B017C018D81E82FF0E0EB54FA
:1019F000FC4F008110E0D801AA0FBB1FAA0FBB1F2C
:101A0000BF83AE83AC5ABE4F1D0120912701309198
:101A100028014091290150912A01C301B2010E947D
:101A2000192D2B013C01609188057091890580E09A
:101A300090E00E94B82C9B01AC01C301B2010E944E
:101A40000F2FF1016083718382839383EE81FF8185
:101A5000E35FFE4F89819A81AB81BC818083918352
:101A6000A283B383F801E95FFE4F618170E080E0FB
:101A700090E00E94BA2C20E030E040ED52E40E9459
:101A8000192DA50194010E94192D20E034E244E7AC
:101A900059E40E940F2F4B015C0120E030E044EB41
:101AA00053E469817A818B819C810E940F2F9B0175
:101AB000AC01C501B4010E949E2E2BED3FE049EC24
:101AC00050E40E94192D2B013C010E944F304B0124
:101AD0005C01C701B6010E944F309B01AC01C501FA
:101AE000B4010E940F2F4B015C01EE81FF81E05198
:101AF000FE4F6083718382839383C301B2010E948E
:101B00000A2F2B013C01C701B6010E940A2F9B013D
:101B1000AC01AE81BF81AC5FBD4FBA83A983C50163
:101B2000B4010E94192D9B01AC01C301B2010E94B6
:101B30009D2EE981FA816083718382839383279646
:101B40000FB6F894DEBF0FBECDBFDF91CF911F91CE
:101B50000F91FF90EF90DF90CF90BF90AF909F904C
:101B60008F907F906F905F904F903F902F9008954F
:101B7000EF92FF920F931F93CF93DF93E091EE01CB
:101B8000CE2FD0E07E01EE0CFF1CEE0CFF1CD70127
:101B9000AC5ABE4F4D935D936D937C931397D701D1
:101BA000A35FBE4F0D931D932D933C931397DE01BE
:101BB000A454BD4F91E09C93A82FB0E0AB54BC4F10
:101BC000EC93EF5FE093EE01F0E0E95FFE4F80837E
:101BD000DF91CF911F910F91FF90EF900895E898BA
:101BE0002A988EBD0DB407FEFDCF8EB56EBD0DB427
:101BF00007FEFDCF8EB52A9AE89A089560E00C940E
:101C0000EF0DCF93C82F81E00E94FE0D837E682FD9
:101C10006C2B81E8CF910C94EF0D88E20E94FE0DB1
:101C2000807521F080E00E94FE0DF7CF0895862791
:101C3000682F62956827062E669566956025062EA4
:101C4000669560256770082E892F669507946795BD
:101C5000902D862706946795902586270895CF9323
:101C60008091C704853009F052C060E485EA0E9483
:101C7000EF0D84E20E94FE0D7894C8E488E20E9491
:101C8000FE0D8075D9F38091C60481110FC0E091DB
:101C90007904F0917A048091C60491E0980F9093B2
:101CA000C60490917D04E80FF11D908380E00E94AE
:101CB000FE0DE0917904F0917A049091C60421E040
:101CC000290F2093C604E90FF11D8083682F8091AE
:101CD0007B0490917C040E94170E90937C04809367
:101CE0007B0480918004833410F0C093C6048091FB
:101CF00080042091C60490E0049630E08217930798
:101D0000ACF08091C604883408F4B8CF0FC088E2E4
:101D10000E94FE0D83FF0AC084E08093C7040E94E6
:101D2000010E60E885EACF910C94EF0DCF910895F4
:101D30000F931F93CF93DF9380EA91E00E941312D9
:101D4000809126018093B601809125018093B7018F
:101D5000809123018093B80180914B0190914C01B7
:101D6000A0914D01B0914E018093B9019093BA01B9
:101D7000A093BB01B093BC018091470190914801B1
:101D8000A0914901B0914A018093BD019093BE0199
:101D9000A093BF01B093C001809143019091440191
:101DA000A0914501B09146018093C1019093C20179
:101DB000A093C301B093C40180913F019091400171
:101DC000A0914101B09142018093C5019093C60159
:101DD000A093C701B093C80180913B0190913C0151
:101DE000A0913D01B0913E018093C9019093CA0139
:101DF000A093CB01B093CC01809137019091380131
:101E0000A0913901B0913A018093CD019093CE0118
:101E1000A093CF01B093D001809133019091340110
:101E2000A0913501B09136018093D1019093D201F8
:101E3000A093D301B093D40180912F0190913001F0
:101E4000A0913101B09132018093D5019093D601D8
:101E5000A093D701B093D80180912B0190912C01D0
:101E6000A0912D01B0912E018093D9019093DA01B8
:101E7000A093DB01B093DC0106EB11E0C0E0D0E001
:101E8000F80161918F01CE010E94DF2D2196C732AA
:101E9000D105B1F7C0E0D0E0CE010E94D72D682F68
:101EA00070E080E090E04AE00E94B5102196C732D1
:101EB000D10591F788E991E00E94A3108FE991E0A4
:101EC0000E94131283E593E00E94EE1168E873E12B
:101ED00080E090E0DF91CF911F910F910C948C17CF
:101EE00086E493E00E94EE118EE393E00E94D3110A
:101EF00060914B0170914C0180914D0190914E0188
:101F00000E94C41185E393E00E94D31160914701C0
:101F1000709148018091490190914A010E94C41139
:101F20008BE293E00E94D3116091430170914401D0
:101F300080914501909146010E94C41182E293E094
:101F40000E94D31160913F01709140018091410145
:101F5000909142010E94C41188E193E00E94D31144
:101F600060913B0170913C0180913D0190913E0157
:101F70000E94C4118FE093E00E94D3116091370159
:101F8000709138018091390190913A010E94C411F9
:101F900085E093E00E94D311609133017091340188
:101FA00080913501909136010E94C4118CEF92E02E
:101FB0000E94D31160912F01709130018091310105
:101FC000909132010E94C41182EF92E00E94D311DD
:101FD00060912B0170912C0180912D0190912E0127
:101FE0000C94C411CF93DF9381320CF49FC0082E60
:101FF000000C990BAA0BBB0BFC01E256F109E7316F
:10200000F10508F08DC0EC5CFF4F0C947F2E8091A1
:10201000DD0181118093260189E294E00E94D311B1
:10202000809126018F7190E00E94211287E294E056
:1020300032C08091DD01843031F0883031F0893058
:1020400031F080E005C081E003C082E001C083E0A0
:102050008093DD018111809325018FE194E00E943E
:10206000D31180912501813021F488E194E00E9410
:10207000D31180912501823021F481E194E00E9406
:10208000D31180912501833021F48AE094E00E94ED
:10209000D31188E094E00E94D31144C08091DD0107
:1020A000882329F090E0909324018093230180E01D
:1020B00094E00E94D31180912301909124010E9409
:1020C00021128EEF93E0E7CF0E94700F2BC08CEBB4
:1020D00093E00E94EE11C0E0D0E06FEFCE010E94CD
:1020E000DF2D2196C732D105C1F786E893E00E9423
:1020F000EE1168E873E180E090E00E948C1702C066
:102100000E94980E0C9400000DC080ED93E00E9498
:10211000D31160E070E080EC9FE30E94C41102C024
:102120000E94FC118EEC93E00E94EE111092DD01F2
:1021300080E001C081E0DF91CF910895682F88ECA5
:1021400094E00C94E304009769F0FC0101900020F6
:10215000E9F73197AF01481B590BBC0188EC94E0BB
:102160000C944C0480E090E008958F929F92AF927F
:10217000BF920F931F93CF93DF93CDB7DEB7A19795
:102180000FB6F894DEBF0FBECDBF19A2423008F4DF
:102190004AE08E010F5D1F4F842E912CA12CB12C93
:1021A000A50194010E943E2EE62FB901CA010150FB
:1021B0001109EA3014F4E05D01C0E95CD801EC9348
:1021C000232B242B252B61F7C8010E94A310A19675
:1021D0000FB6F894DEBF0FBECDBFDF91CF911F9138
:1021E0000F91BF90AF909F908F9008958F929F9284
:1021F000AF92BF92CF92DF92EF92FF920F931F9315
:10220000CF93DF936B017C01142F9B01AC010E94E3
:102210009D30882319F08AEA91E027C046015701D2
:10222000E894B7F82FEF3FEF4FE75FE7C501B40140
:102230000E949D3081110DC02FEF3FEF4FE75FE708
:10224000C501B4010E94B32C18161CF48EEA91E06B
:102250000CC02FEF3FEF4FE75FE4C701B6010E94CC
:102260004A30181684F482EB91E0DF91CF911F91F0
:102270000F91FF90EF90DF90CF90BF90AF909F9025
:102280008F900C94A3102FEF3FEF4FE75FECC70147
:10229000B6010E94B32C87FDE6CF20E030E0A90113
:1022A000C701B6010E94B32C87FF09C08DE20E94CE
:1022B0009E10EC01F7FAF094F7F8F09402C0C0E039
:1022C000D0E000E060E070E080E09FE3101741F0B4
:1022D00020E030E040E251E40E940F2F0F5FF6CF84
:1022E000A70196010E949E2E6B017C010E94882FFF
:1022F0004B015C014AE00E94B510C80FD91F1123A1
:10230000A9F1C501B4010E94B82C9B01AC01C70121
:10231000B6010E949D2E6B017C018EE20E949E10F0
:10232000C80FD91F20E030E040E251E4C701B601F8
:102330000E94192D4B015C010E94882F6B01E12C3A
:10234000F12C4AE0C701B6010E94B510C80FD91F91
:10235000C701B6010E94B82C9B01AC01C501B401B4
:102360000E949D2E6B017C011150E1F6CE01DF91A0
:10237000CF911F910F91FF90EF90DF90CF90BF9082
:10238000AF909F908F900895CF93DF9342E00E948B
:10239000F610EC018DE991E00E94A3108C0F9D1FB7
:1023A000DF91CF9108950F931F93CF93DF938C010B
:1023B000C0E0D0E0F801EC0FFD1F6491662341F00E
:1023C00088EC94E00E94E304892B11F02196F2CF6F
:1023D000CE01DF91CF911F910F910895CF93DF939D
:1023E0000E94D311EC018DE991E00E94A3108C0FA3
:1023F0009D1FDF91CF9108951F93CF93DF93C2E686
:10240000D4E0FE011491112351F01A3019F48DE03B
:102410000E949E10812F0E949E102196F2CFDF9184
:10242000CF911F910895CF93DF930E94A310EC01E9
:102430008DE991E00E94A3108C0F9D1FDF91CF9139
:102440000895CF92DF92EF92FF92CF93DF936C01CA
:10245000990FEE08FF08F7FE17C08DE20E949E104C
:10246000EC0166277727CB016C197D098E099F093E
:102470004AE00E94B5108C0F9D1FDF91CF91FF9015
:10248000EF90DF90CF9008954AE0C701B601DF9149
:10249000CF91FF90EF90DF90CF900C94B5100F93F9
:1024A0001F930E94C6176093D0047093D104809349
:1024B000D2049093D30488EC94E00E94890497FF9F
:1024C0001FC00E94C6170091D0041091D104209122
:1024D000D2043091D304DC01CB01801B910BA20B01
:1024E000B30B0091CC041091CD042091CE04309117
:1024F000CF0480179107A207B307E8F28FEF9FEF91
:102500001F910F9108958230B8F4E82FF0E0EE0F9C
:10251000FF1FE059FE4F71836083813039F0809155
:102520006900836080936900E89A0895809169004A
:102530008C6080936900E99A0895BF92CF92DF92F0
:10254000EF92FF920F931F93CF93DF93EC016B01F8
:102550008D85811105C0CE010E94AA16811105C08A
:102560001B861D861C8680E060C040E060EFCE01C7
:102570000E94571601E0E12CB12C11E0CE010E941F
:102580000416F82ECE010E94041691E0F91203C041
:102590008130B1F434C02E2D30E0F8121BC08B8591
:1025A000181738F4FE01E20FF31F8381802341F4F2
:1025B00002C0811729F0F12C193058F41C8709C08A
:1025C000FE01EE0DF11D8381802B8383FF24F394A4
:1025D00009C0B12EFE01E20FF31F9381802F809579
:1025E000892383836F2DCE010E9428161F5F000F61
:1025F00011F4E39401E087E08E1508F0BFCF1134A9
:1026000008F4AECFBB86B11002C081E08D878B810C
:10261000882309F4A5CFDE011396F6012B968D9140
:102620008193CA17DB07D9F781E0DF91CF911F9122
:102630000F91FF90EF90DF90CF90BF9008956F9231
:102640007F928F929F92AF92BF92CF92DF92EF9242
:10265000FF920F931F93CF93DF93CDB7DEB72997E8
:102660000FB6F894DEBF0FBECDBF8C0180916A0516
:1026700090916B050E94AA16882309F451C0B801F5
:1026800080916A0590916B050E948B1640E06EEB7D
:1026900080916A0590916B050E9457168E010F5F1D
:1026A0001F4F5E018AE0A80EB11C380180906A05B8
:1026B00090906B0588E0C82ED12CF12CEE24E39489
:1026C000C4010E9404168111FE28EE0CE1E0CE1A2E
:1026D000D108B1F7F801F1928F01EA15FB0531F746
:1026E00080916A0590916B050E94AA168130C1F411
:1026F00068E0C3010E94EC159985891311C08D8192
:102700008F3361F020F48F3159F489E00CC08F359C
:1027100019F08F3739F004C08BE005C08AE003C0A0
:1027200080E001C08CE029960FB6F894DEBF0FBEA2
:10273000CDBFDF91CF911F910F91FF90EF90DF9070
:10274000CF90BF90AF909F908F907F906F900895A3
:10275000CF93C82F60E00E9439178C2F90E0FC01C6
:10276000E25BFB4FE491E0937805FC01E65CFB4FF4
:10277000E491F0E0EE0FFF1FE05DFB4F8591949137
:1027800090937A05809379051092830510928505C0
:1027900010928405E3E8F5E0129285E0EB37F80744
:1027A000D9F7CF910895EF92FF920F931F93CF9394
:1027B000DF93082FF92ECEE7D4E015E084E0E82E71
:1027C0008091C704853029F48091C604882309F4D8
:1027D00069C08091C704843019F0853019F130C088
:1027E000109280041092C60460917D048FEF9FEFD9
:1027F0000E94170E90937C0480937B04D0937A04FC
:10280000C09379041093C7040E940D0E60E885EA16
:102810000E94EF0D80E10E94010E62E08EE90E94AD
:10282000EF0D0EC0809180042091C60490E00496C4
:1028300030E0821793073CF08091C604883418F486
:102840008FEF9FEF26C0E092C70484E00E94010E44
:102850008091800420917B0430917C04232B09F02B
:1028600093C0833408F090C080917F0486FF8FC0AE
:10287000309178043F3109F48AC020917F042F7190
:1028800081E090E0231302C080E090E09195819573
:10289000910990938B0580938A0580918A05909188
:1028A0008B058ECF84E08093C7040E94010E88E2DE
:1028B00080938004E02FFF2D80E090E0DC01AF5793
:1028C000BB4F21912C93019688329105B9F78091E5
:1028D000780480937F0460917D048FEF9FEF0E94C6
:1028E000170E90937C0480937B04909180048EEF6C
:1028F000891B8093C7040E940D0E8CE00E94010E7C
:1029000060E085EA0E94EF0D8091C70483300CF0EF
:1029100041C088E20E94FE0D87FDF6CF8091C7047A
:1029200087FF1BC0909180048091C704E0917904D7
:10293000F0917A04E90FF11DE80FF11D87FDFA957A
:10294000C3816C2F80917B0490917C040E94170EB0
:1029500090937C0480937B040DC08091C7048823EE
:1029600029F0813031F4C0917C0404C0C0917B0413
:1029700001C0CAEA6C2F80E80E94EF0D8091C70465
:102980008F5F8093C704C0CF81E090E082CF80E06A
:1029900090E07FCFDF91CF911F910F91FF90EF904B
:1029A00008950F931F930E94C6176093D0047093ED
:1029B000D1048093D2049093D30488EC94E00E94D5
:1029C0009D0497FF1FC00E94C6170091D00410916C
:1029D000D1042091D2043091D304DC01CB01801BBF
:1029E000910BA20BB30B0091CC041091CD0420915C
:1029F000CE043091CF0480179107A207B307E8F205
:102A00008FEF9FEF1F910F9108950895833081F00C
:102A100028F4813099F08230A1F008958730A9F030
:102A20008830B9F08430D1F4809180008F7D03C06C
:102A3000809180008F7780938000089584B58F7790
:102A400002C084B58F7D84BD08958091B0008F77DA
:102A500003C08091B0008F7D8093B00008953FB790
:102A6000F8948091910590919205A0919305B09171
:102A7000940526B5A89B05C02F3F19F00196A11D0E
:102A8000B11D3FBFBA2FA92F982F8827820F911D04
:102A9000A11DB11DBC01CD0142E0660F771F881F4B
:102AA000991F4A95D1F708958F929F92AF92BF9246
:102AB000CF92DF92EF92FF92CF93DF930E94D114D7
:102AC000FC0197FD0EC08D32910579F0C0970A97F1
:102AD00060F0EE32F10549F088EC94E00E94890440
:102AE000EDCF60E070E0CB016CC0812C912C80E8D0
:102AF000A82E8FE3B82EC12CD12C7601C0E0D0E0F7
:102B0000E130F10569F1ED32F10539F1EE32F1050F
:102B100031F1CF01C0970A9718F5AAE0B0E0A701FC
:102B200096010E94ED2D6F01FF0FEE08FF08C60E03
:102B3000D71EE81EF91E80E3C81AD108E108F10883
:102B4000CC2371F02DEC3CEC4CEC5DE3C501B40101
:102B50000E94192D4B015C0103C0D1E001C0C1E00E
:102B600088EC94E00E9489040E94D114FC01C09773
:102B70000A9730F2EE32F10519F4C1111FC0C0CF2F
:102B8000E130F10509F4BCCFDD2341F0F094E0948D
:102B9000D094C094C11CD11CE11CF11CCC2349F081
:102BA000C701B6010E94BA2CA50194010E94192DFB
:102BB00008C0C701B6010E94BA2C03C0D111E6CFEC
:102BC000EFCFDF91CF91FF90EF90DF90CF90BF904C
:102BD000AF909F908F900895DC0180E0615098F055
:102BE0002D91982F9227E92FEF70F0E0E15EF74FDB
:102BF000249192959F70E92FF0E0E15DF74FE49109
:102C0000822F8E27EBCF0895FC0190810180F28105
:102C1000E02DF8948181892B81832281892F8095F1
:102C200028232283A7E0B0E01197F1F721818223C6
:102C30008183A3E2B0E01197F1F780817894EFEC03
:102C4000F0E03197F1F7982381E009F480E00895EE
:102C5000FC0190810180F281E02D892F809560FF39
:102C600012C0F8942281822382838181892B8183FF
:102C7000A3E2B0E01197F1F78281982B92837894C8
:102C800087ED90E011C0F8942281822382838181B4
:102C9000892B8183AFEFB0E01197F1F78281982BF8
:102CA000928378948FE090E00197F1F70895DF9296
:102CB000EF92FF920F931F93CF93DF93EC01D62EE9
:102CC000E42E08E010E0FF24F39461E08D2D8F21C5
:102CD00009F460E0CE010E942816FF0C0150110992
:102CE000A1F7E11010C0F894E981FA8191818881FF
:102CF000809589238183E981FA81928188818095F9
:102D0000892382837894DF91CF911F910F91FF9057
:102D1000EF90DF900895EF92FF920F931F93CF9360
:102D2000DF938C017B0140E065E50E945716E701C7
:102D300088E0E80EF11C699140E0C8010E94571636
:102D4000CE15DF05C1F7DF91CF911F910F91FF9055
:102D5000EF900895DC012C911196ED91FC91129762
:102D6000F8948181922F90958923818378948DE7BF
:102D700043E050E0815021F1DA011197F1F7308101
:102D80003223C1F3F8948281892382838181822B4B
:102D900081837894ABE7B7E01197F1F7F8948181DC
:102DA0009823918383E191E00197F1F780812823B3
:102DB00081E009F080E07894E3E6F6E03197F1F7FE
:102DC0000895CF93DF93282F30E0F901E55FF74FA7
:102DD0008491F901E25BFB4FD491F901E65CFB4F72
:102DE000C491CC2391F081110E940615EC2FF0E0E4
:102DF000EE0FFF1FE05DFB4FA591B491EC91ED2329
:102E000081E090E021F480E002C080E090E0DF917A
:102E1000CF9108951F93CF93DF93282F30E0F901CE
:102E2000E55FF74F8491F901E25BFB4FD491F90123
:102E3000E65CFB4FC491CC23C1F0162F81110E9498
:102E40000615EC2FF0E0EE0FFF1FEF5FF74FA59197
:102E5000B4919FB7F894111104C08C91D095D823E8
:102E600002C0EC91DE2BDC939FBFDF91CF911F91CD
:102E70000895CF93DF9390E0FC01E25BFB4F249138
:102E8000FC01E65CFB4F8491882361F190E0880FA0
:102E9000991FFC01E950F84FC591D491FC01EF5FF7
:102EA000F74FA591B491611109C09FB7F89488813B
:102EB000209582238883EC912E230BC0623061F42D
:102EC0009FB7F8948881322F309583238883EC91C3
:102ED0002E2B2C939FBF06C08FB7F894E8812E2B22
:102EE00028838FBFDF91CF9108958E3008F08E50E8
:102EF0008770806480937C0080917A0080648093E6
:102F00007A0080917A0086FDFCCF80917800209134
:102F1000790090E0922B08958F929F92AF92BF928A
:102F2000CF92DF92EF92FF926B017C010E942F15EE
:102F30004B015C01C114D104E104F104F1F00E94E1
:102F40002F15DC01CB0188199909AA09BB09883E14
:102F50009340A105B10570F321E0C21AD108E10840
:102F6000F10888EE880E83E0981EA11CB11CC114E4
:102F7000D104E104F10419F7DDCFFF90EF90DF9069
:102F8000CF90BF90AF909F908F9008952FB7F894F7
:102F900060918D0570918E0580918F0590919005BF
:102FA0002FBF08951F920F920FB60F9211242F93E7
:102FB0003F938F939F93AF93BF9380918D05909193
:102FC0008E05A0918F05B091900530918C0523E07E
:102FD000230F2D3720F40196A11DB11D05C026E851
:102FE000230F0296A11DB11D20938C0580938D05A2
:102FF00090938E05A0938F05B093900580919105D5
:1030000090919205A0919305B09194050196A11D10
:10301000B11D8093910590939205A0939305B09371
:103020009405BF91AF919F918F913F912F910F90F8
:103030000FBE0F901F901895CF93DF93CDB7DEB7DB
:10304000C652D1400FB6F894DEBF0FBECDBF789404
:1030500084B5826084BD84B5816084BD85B582609D
:1030600085BD85B5816085BD80916E00816080934E
:103070006E001092810080918100826080938100B7
:1030800080918100816080938100809180008160C7
:10309000809380008091B10084608093B100809122
:1030A000B00081608093B00080917A00846080934A
:1030B0007A0080917A00826080937A0080917A0011
:1030C000816080937A0080917A00806880937A0092
:1030D0001092C10099E288E10FB6F894A895809308
:1030E00060000FBE9093600061E086E00E94391797
:1030F00061E086E00E940A1761E083E10E943917CF
:1031000061E083E10E940A1762E088E00E943917BB
:1031100062E089E00E943917E091D804F091D90467
:1031200082E08083E091D404F091D5041082E09194
:10313000D604F091D70480E180831092E004E091FE
:10314000DC04F091DD0486E08083E091DA04F09104
:10315000DB04808180618083E091DA04F091DB04FC
:10316000808188608083E091DA04F091DB048081C3
:1031700080688083E091DA04F091DB0480818F7DA8
:10318000808388E00E94E116892B29F48091260132
:103190008F5F8093260183E692E00E94D31160E066
:1031A00070E080EC9FE30E94C4118DE492E00E94E5
:1031B000EE1100E010E0E12CF12CC8010E94D72DA7
:1031C0008F3F09F0F39447E2C42EFC1002C0EE24B6
:1031D000E3940F5F1F4F0732110579F7EE2009F4D2
:1031E0007CC186E191E00E94D31100E010E036EB53
:1031F000E32E31E0F32EC8010E94D72DD7018D9325
:103200007D010F5F1F4F07321105A9F73090B601FE
:10321000332009F45FC10091B701002309F45AC1BA
:103220001091B801112309F455C1C090B901D09093
:10323000BA01E090BB01F090BC01C352DF4FC882DD
:10324000D982EA82FB82CD5DD04020E030E0A90146
:10325000C701B6010E94B32C882309F43BC1C0907A
:10326000BD01D090BE01E090BF01F090C001CF51F0
:10327000DF4FC882D982EA82FB82C15ED04020E063
:1032800030E0A901C701B6010E94B32C882309F4DC
:1032900021C1C090C101D090C201E090C301F09063
:1032A000C401CB51DF4FC882D982EA82FB82C55E5E
:1032B000D04020E030E0A901C701B6010E94B32C44
:1032C000882309F407C1C090C501D090C601E090E1
:1032D000C701F090C801C751DF4FC882D982EA8286
:1032E000FB82C95ED04020E030E0A901C701B601F1
:1032F0000E94B32C882309F4EDC0C090C901D0907E
:10330000CA01E090CB01F090CC01C351DF4FC882DD
:10331000D982EA82FB82CD5ED04020E030E0A90174
:10332000C701B6010E94B32C882309F4D3C0C09012
:10333000CD01D090CE01E090CF01F090D001CF50E0
:10334000DF4FC882D982EA82FB82C15FD04020E091
:1033500030E0A901C701B6010E94B32C882309F40B
:10336000B9C04090D1015090D2016090D3017090CB
:10337000D40120E030E0A901C301B2010E94B32CC6
:10338000882309F4A7C08090D5019090D601A09021
:10339000D701B090D80120E030E0A901C501B40107
:1033A0000E94B32C882309F495C0C090D901D09015
:1033B000DA01E090DB01F090DC0120E030E0A901CF
:1033C000C701B6010E94B32C882309F483C0309250
:1033D000260100932501812F90E090932401809392
:1033E0002301C352DF4F88819981AA81BB81CD5DC2
:1033F000D04080934B0190934C01A0934D01B0932A
:103400004E01CF51DF4F88819981AA81BB81C15E76
:10341000D0408093470190934801A0934901B09315
:103420004A01CB51DF4F88819981AA81BB81C55E5A
:10343000D0408093430190934401A0934501B09301
:103440004601C751DF4F88819981AA81BB81C95E3E
:10345000D04080933F0190934001A0934101B093ED
:103460004201C351DF4F88819981AA81BB81CD5E22
:10347000D04080933B0190933C01A0933D01B093D9
:103480003E01CF50DF4F88819981AA81BB81C15F06
:10349000D0408093370190933801A0933901B093C5
:1034A0003A0140923301509234016092350170929A
:1034B000360180922F0190923001A0923101B0929A
:1034C0003201C0922B01D0922C01E0922D01F0929A
:1034D0002E0107C083EE90E002C084EB90E00E94D2
:1034E000EE110E94700F85E492E00E94D3118DE3EB
:1034F00092E00E94D3116091260170E080E090E09C
:103500004AE00E94B51082E991E00E94A3108091E8
:103510002501813019F486E392E009C0823019F464
:103520008FE292E004C0833021F488E292E00E94AE
:10353000D3118FE192E00E94D311809123019091E9
:1035400024010E9421128DE991E00E94A31088E9D4
:1035500091E00E94131284E192E00E94EE1100912A
:103560002301A091250110912601EFEFEA0FE3302E
:1035700028F4F0E0E558FE4FE08101C0E0E0B0E063
:1035800020E039E04DE350E00E94ED2D6B017C011D
:10359000AE2FB0E020E836E948E950E00E94ED2D7A
:1035A000DC01CB018C0D9D1DAE1DBF1DBC01CD01ED
:1035B000B2E0660F771F881F991FBA95D1F729E0EF
:1035C0003DE340E050E00E943E2EDA01C90126E0D2
:1035D000880F991FAA1FBB1F2A95D1F78093D80285
:1035E0009093D902A093DA02B093DB0200937D049A
:1035F0001F711093780464E170E080E090E00E9415
:103600008C1780917804882331F06FE27EE080E0AF
:103610000E94831207C0E8988BE494E090937101B4
:10362000809370012A9A229A2A9A84B18C6284B972
:1036300080E58CBD8DB581608DBD6AEA8FEA0E9400
:10364000EF0D8FE20E94FE0D8A3AB9F765E58FEA29
:103650000E94EF0D8FE20E94FE0D8535B9F70FE253
:1036600011E0F8018491882341F0319664918068DB
:103670000E94EF0D0E5F1F4FF4CF60917D0481EB30
:103680000E94EF0DC090D802D090D902E090DA02EB
:10369000F090DB02B7018827992787E80E94EF0D99
:1036A00099278F2D7E2D6D2D88E80E94EF0D6C2DB2
:1036B00089E80E94EF0D84E08093C7040AE010E0DF
:1036C000A5E5DA2E7E01F9E2EF0EF11C1093490315
:1036D0000093480388E2E2E4F3E0DE0111960190F2
:1036E0000D928A95E1F7FE01319680818D258193B7
:1036F000EE15FF05D1F7CE0101960E94D31364E6C3
:1037000070E080E090E00E948C1701501109F0F603
:103710008091C704843064F483B7817F8C6083BF59
:1037200083B7816083BF889583B78E7F83BFF0CFD7
:1037300010924903109248038CE691E00E94EE112A
:10374000A8950E94C6174B015C0148E8840E43E12E
:10375000941EA11CB11C0E94C617681579058A0524
:103760009B0508F093C088EC94E00E94AB04892B81
:1037700009F484C01A8219821C821B821E821D8257
:1037800060E070E0CE0101960E94BD0529813A817A
:1037900081110DC02115310519F0C9010E948A312E
:1037A0001A8219821E821D821C821B8207C01E8201
:1037B0001D826FE971E0C9010E94F0320E944F1230
:1037C0000D811E8197FD17C089A71AA60F5F1F4F95
:1037D000B801CE0101960E94BD05882379F32981A5
:1037E0003A818D819E81B701820F931F0E94F03232
:1037F0001E830D83E3CFC980DA80012B41F06AE993
:1038000071E0C6010E94E73211E0892B09F010E057
:10381000C6010E948A31112389F184E591E00E945A
:10382000EE110E94FC1186E70E94F20F182F111171
:1038300025C088EC94E00E94AB04892BB9F088EC99
:1038400094E00E94890490ED980F9A3060F4909172
:10385000DD01990F292F220F220F920F9053890F0C
:103860008093DD0103C00E94F20F182F64E670E020
:1038700080E090E00E948C17A895D9CF64E670E0B4
:1038800080E090E00E948C17A89565CF89E00E94A7
:10389000E116892B69F481E08093F50282E092E0E1
:1038A0000E94D31160E070E082E093E40E94C411B2
:1038B00081E00E947517181619064CF481E0809378
:1038C00041038091F4028F5F8093F40202C0109252
:1038D000410382E00E947517181619064CF481E026
:1038E000809340038091F4028F5F8093F40202C0C2
:1038F0001092400383E00E947517181619064CF4C5
:1039000081E080933F038091F4028F5F8093F40203
:1039100002C010923F0384E00E9475171816190622
:103920004CF481E080933E038091F4028F5F80939A
:10393000F40202C010923E031091F402111103C070
:1039400081E08093410360E086E00E940A17111134
:1039500005C081EF91E00E94EE1148C080914103C3
:10396000882371F08CED91E00E94D31160914701A2
:10397000709148018091490190914A010E94C411BF
:1039800080914003882371F087EC91E00E94D3116D
:1039900060913F01709140018091410190914201FD
:1039A0000E94C41180913F03882371F082EB91E063
:1039B0000E94D311609137017091380180913901D3
:1039C00090913A010E94C41180913E03882371F0C6
:1039D0008DE991E00E94D31160912F017091300127
:1039E00080913101909132010E94C41168EC70E025
:1039F00080E090E00E948C1780914B0190914C01E7
:103A0000A0914D01B0914E01109207018093680181
:103A100090936901A0936A01B0936B01D090F50275
:103A2000DD2061F080E090E0A2E0B3E480936801E3
:103A300090936901A0936A01B0936B018091410357
:103A4000882399F000914301109144012091450190
:103A500030914601409147015091480160914901E0
:103A600070914A0181E00E94B80D80914003882343
:103A700099F000913B0110913C0120913D01309162
:103A80003E0140913F015091400160914101709190
:103A9000420182E00E94B80D80913F03882399F093
:103AA000009133011091340120913501309136019C
:103AB00040913701509138016091390170913A017C
:103AC00083E00E94B80D80913E03882399F0009115
:103AD0002B0110912C0120912D0130912E0140914C
:103AE0002F0150913001609131017091320184E0D9
:103AF0000E94B80D83E393E3A3E5B0E4809327012C
:103B000090932801A0932901B0932A01DD2021F090
:103B10008CE390E00E94530C80E090E0A0E2B1E4DE
:103B20008093500190935101A0935201B09353019F
:103B30000091210110912201B801012E000C880B87
:103B4000990B0E94BA2C20E030E040E251E40E9440
:103B5000192D0E94812F4B015C017093ED01609340
:103B6000EC0180910501807790E065E0959587955F
:103B70006A95E1F723E030E0281B390B80EF92E0F3
:103B80006C0102C0D594C7942A95E2F79601D8013A
:103B90000E94852E28E13CEF4FEF5FEF0E94602EE0
:103BA00081E0881A9108280D391D3093E301209394
:103BB000E201C601DD0CAA0BBB0B40E157E260E05D
:103BC00070E09A01AB01281B390B4A0B5B0BA8EE86
:103BD000B3E00E94ED2D685873418109910928E6F0
:103BE00030E040E050E00E943E2E2093DE01309312
:103BF000DF014093E0015093E10111E010931003C5
:103C00001093110373E0D72ED0926D0110936C01C5
:103C10001092000110920101109202011092030112
:103C200085E08093740183E180934F0161E00E94FD
:103C3000391761E083E10E940A170FE5009305013F
:103C40008CED92E09093F7028093F6021092DC02E2
:103C500088E393E09093F9028093F802D0920401F4
:103C6000809174010E94A8131093FB0219A61AA652
:103C70000BA780E395E790933903809338039093E3
:103C80003B0380933A0390933D0380933C03E09180
:103C90006A05F0916B05138615861486DF011B9665
:103CA00033961E92AE17BF07E1F71092690501E047
:103CB000BE016F5F7F4F80916A0590916B050E94F6
:103CC0009D12882309F454C067E0CE0101960E943A
:103CD000EC1598858913ECCF80916505811127C07B
:103CE00080916A0590916B050E94AA16BE016F5FD4
:103CF0007F4F80916A0590916B050E948B1640E082
:103D000064EB80916A0590916B050E945716809133
:103D10006A0590916B050E940416182F80916A0520
:103D200090916B050E94AA16112309F441C01091CD
:103D300066058981803111F40C945F2CCE010196C7
:103D40000E941F13811718F48091660509C08981AC
:103D5000803111F48CE004C0CE0101960E941F1343
:103D600080936605809169058F5F80936905A0CF78
:103D7000809169058093FA02843018F083E0809383
:103D8000FA028091DC028832B1F010E08091FA02F0
:103D9000181788F498E0199FB001112464527D4FE0
:103DA00088E795E00E949D1281110C94232C03C09A
:103DB00000936505BCCF88E795E00E94AA1640E015
:103DC0006CEC88E795E00E94571640E06EE488E7C7
:103DD00095E00E9457168E01045D1F4FD7016D912B
:103DE0007D0140E088E795E00E945716E016F10655
:103DF000A9F788E795E00E94AA1640E06CEC88E7F6
:103E000095E00E94571641E068E488E795E00E943B
:103E1000571664E170E080E090E00E948C17E0901B
:103E20002101F090220128E731E0D7010E948D2E78
:103E300028E13CEF4FEF5FEF0E94602E8091EC0194
:103E40009091ED010197280F391F3093E3012093E2
:103E5000E2018AE499E6A1E0B0E08093DE0190936C
:103E6000DF01A093E001B093E1018091EE0188238E
:103E700079F0282F30E030936F0120936E018F5F2F
:103E8000853030F4E82FF0E0E454FD4F1082F7CF96
:103E900000916E0110916F01B701FF0C880B990B17
:103EA0000E94BA2CC751DF4F688379838A839B8332
:103EB000C95ED040C801019628E6289FB001299F1D
:103EC000700D1124072E000C880B990B0E94BA2C40
:103ED0002BED3FE049EC50E40E94192DC751DF4F14
:103EE000288139814A815B81C95ED0400E94192DA9
:103EF00020E034E244E759E40E940F2F4B015C01BB
:103F0000609188057091890580E090E00E94B82C4E
:103F1000CF50DF4F688379838A839B83C15FD04012
:103F200023E333E343E550E4609168017091690154
:103F300080916A0190916B010E94192DCF50DF4F43
:103F4000288139814A815B81C15FD0400E940F2F57
:103F5000609368017093690180936A0190936B018B
:103F6000EDE0F1E0C950DF4FF983E883C75FD0404F
:103F700048E051E0CB50DF4F59834883C55FD040C4
:103F80008CE193E0C352DF4F99838883CD5DD040AD
:103F9000ACEFB2E0CF51DF4FB983A883C15ED04010
:103FA000E4E0F2E0CB51DF4FF983E883C55ED04017
:103FB00040EF51E0C351DF4F59834883CD5ED0407D
:103FC00084E591E0C750DF4F99838883C95FD04073
:103FD000C350DF4F99838883CD5FD040212C312C93
:103FE000201631060CF0EAC0C350DF4FE881F9819A
:103FF000CD5FD0406191719181919191C350DF4F1C
:10400000F983E883CD5FD04023E333E343E550E415
:104010000E94192DCF50DF4F288139814A815B8161
:10402000C15FD0400E940F2FC750DF4FA881B981D8
:10403000C95FD0406D937D938D939D93C750DF4FA3
:10404000B983A883C95FD040C950DF4FE881F981A7
:10405000C75FD0404190519061907190C950DF4F3F
:10406000F983E883C75FD040FFEF2F1A3F0ACB5098
:10407000DF4FA881B981C55FD0406D91CB50DF4F34
:10408000B983A883C55FD04070E080E090E00E94D3
:10409000BA2C20E030E040ED52E40E94192DC751C7
:1040A000DF4F288139814A815B81C95ED0400E94FF
:1040B000192D20E034E244E759E40E940F2F6B01F0
:1040C0007C0120E030E044EB53E4C301B2010E94E4
:1040D0000F2F9B01AC01C701B6010E949E2E2BED54
:1040E0003FE049EC50E40E94192D2B013C010E9455
:1040F0004F306B017C01C501B4010E944F309B0120
:10410000AC01C701B6010E940F2F6B017C01C351A6
:10411000DF4FE881F981CD5ED04061937193819347
:104120009193C351DF4FF983E883CD5ED040C30143
:10413000B2010E940A2F2B013C01C501B4010E946B
:104140000A2F9B01AC01C701B6010E94192D9B01EA
:10415000AC01C301B2010E949D2ECB51DF4FA8815B
:10416000B981C55ED0406D937D938D939D93CB5166
:10417000DF4FB983A883C55ED040CF51DF4FE881C0
:10418000F981C15ED0401192119211921192CF51DA
:10419000DF4FF983E883C15ED040C352DF4FA8816F
:1041A000B981CD5DD0401D921D921D921D92C352CA
:1041B000DF4FB983A883CD5DD04012CF81E08093DB
:1041C00006011092E4011092E5011092E6011092AE
:1041D000E70187E080937A0080917A00806880937D
:1041E0007A0080917A00806280937A0080917A00D0
:1041F000886080937A0080917A00806480937A004E
:104200007894C0905001D0905101E0905201F0900C
:1042100053016091210170912201072E000C880B3F
:10422000990B0E94BA2CA70196010E94192D0E9499
:10423000812F7093ED016093EC011092D50220E084
:1042400034E244E759E4C701B6010E94192D20E089
:1042500030E040ED52E40E940F2F0E94882F6093BF
:10426000E8017093E9018093EA019093EB0180915A
:104270001003882359F062E080916D010E94391784
:104280006EE575E080916C010E94831210924203EA
:1042900010924303109244031092450388EC94E07B
:1042A0000E94AB04892B09F4EFC088EC94E00E94D3
:1042B0009D048B3619F154F4863609F0DAC00E9459
:1042C00054150E94812F6B017C0109C08C3609F4C2
:1042D000CEC0833709F0CDC00E94980ECAC088ECCA
:1042E00094E00E94AB04892B29F088EC94E00E94B2
:1042F0008904F5CFC6010E94530CBBC00E9454151F
:104300000E94812F8B010E9454156B017C010E9439
:1043100054154B015C0188EC94E00E94AB04892B9E
:1043200029F088EC94E00E948904F5CF0230110551
:1043300009F46DC0FCF401151105E1F1013011051E
:1043400009F097C095018401B701A60181E00E94A0
:10435000A40CC0924701D0924801E0924901F0922A
:104360004A018092430190924401A0924501B0928B
:1043700046017FC00330110509F461C00430110506
:1043800009F077C095018401B701A60184E00E947D
:10439000A40CC0922F01D0923001E0923101F09232
:1043A000320180922B0190922C01A0922D01B092AB
:1043B0002E015FC0209127013091280140912901F1
:1043C00050912A01C701B6010E94192D4B015C01D1
:1043D000609188057091890580E090E00E94B82C7A
:1043E0009B01AC01C501B4010E940F2F60936801CD
:1043F0007093690180936A0190936B01C0924B01A5
:10440000D0924C01E0924D01F0924E0132C09501E4
:104410008401B701A60182E00E94A40CC0923F0172
:10442000D0924001E0924101F092420180923B0122
:1044300090923C01A0923D01B0923E011AC09501BC
:104440008401B701A60183E00E94A40CC092370149
:10445000D0923801E0923901F0923A018092330112
:1044600090923401A0923501B092360102C00E94B0
:10447000700F88EC94E00E94AB04892B29F088EC43
:1044800094E00E948904F5CF8091D602882311F12F
:104490001092D6028091FB028823E1F010914F0127
:1044A00017FD08C061E0812F0E94391761E0812F5C
:1044B0000E940A1788E795E00E94AA1640E06CEC7B
:1044C00088E795E00E94571641E064E488E795E0AC
:1044D0000E9457168091D502882311F40C94182C51
:1044E0001092D502F8948091D1029091D202A091BD
:1044F000D302B091D402C752DF4F88839983AA8335
:10450000BB83C95DD0407091C9026091CA025091CD
:10451000CB024091CC023091CD022091CE029091FD
:10452000CF028091D002CF52DF4F7883C15DD0405F
:10453000CE52DF4F6883C25DD040CD52DF4F5883EB
:10454000C35DD040CC52DF4F4883C45DD040CB52D6
:10455000DF4F3883C55DD040CA52DF4F2883C65D28
:10456000D040C952DF4F9883C75DD040C852DF4F5B
:104570008883C85DD0407091C1026091C2025091A1
:10458000C3024091C4023091C5022091C6029091AD
:10459000C7028091C802C753DF4F7883C95CD040FF
:1045A000C653DF4F6883CA5CD040C553DF4F588382
:1045B000CB5CD040C453DF4F4883CC5CD040C35366
:1045C000DF4F3883CD5CD040C253DF4F2883CE5CB1
:1045D000D040C153DF4F9883CF5CD040C053DF4FF2
:1045E0008883C05DD04020916E0130916F0180E0E2
:1045F00090E0821793070CF01DC1FC01E454FD4FBD
:1046000040815C0153E0AA0CBB1C5A95E1F744239E
:1046100009F4B3C0D501AC56BD4FEC901196FC9097
:10462000119712960C91129713961C91139714964A
:104630007C91149715966C91159716965C91169728
:1046400017964C91A9E7B0E0AC0FBD1FAA0DBB1D9A
:10465000EC921196FC92119712960C931297139666
:104660001C93139714967C93149715966C93159737
:1046700016965C93169717964C93D501A459BD4F87
:10468000EC901196FC90119712960C91129713963C
:104690001C91139714967C91149715966C9115970D
:1046A00016965C91169717964C91A1E5B0E0AC0F69
:1046B000BD1FAA0DBB1DEC921196FC92119712968C
:1046C0000C93129713961C93139714967C9314973C
:1046D00015966C93159716965C93169717964C93B0
:1046E000D501AC5BBD4FCC901196DC901197129622
:1046F000EC9012971396FC90139714960C911497C4
:1047000015961C91159716967C91169717966C9195
:10471000A1E0B0E0AC0FBD1FAA0DBB1DAD01485D0F
:104720005F4F9896CC929897FA01D182E282F382F9
:104730000483158376836783F501E45EFD4FE08093
:10474000F180028113817481658156814781EC92E9
:104750001196FC92119712960C93129713961C9334
:10476000139714967C93149715966C931597169639
:104770005C93169717964C935BC0A9E7B0E0AC0F1B
:10478000BD1FAA0DBB1D1C9211961C92119712966B
:104790001C92129713961C92139714961C921497BE
:1047A00015961C92159716961C92169717961C92A2
:1047B000A1E5B0E0AC0FBD1FAA0DBB1D1C92119668
:1047C0001C92119712961C92129713961C92139793
:1047D00014961C92149715961C92159716961C9277
:1047E000169717961C92E1E0F0E0EC0FFD1FEA0D22
:1047F000FB1DDF01989610A611961C921197129638
:104800001C92129713961C92139714961C9214974D
:1048100015961C92159716961C92169717961C9231
:1048200010821182128213821482158216821782DC
:104830000196DFCE80911103882321F1809110032E
:10484000882361F062E080916D010E9439176EE566
:1048500075E080916C010E94831212C0E0916C019E
:10486000E23070F4E13011F0E89801C0E998F0E02E
:10487000EE0FFF1FE059FE4F8BE494E0918380839D
:10488000109211038091180290911902A0911A02BE
:10489000B0911B02892B8A2B8B2B21F1809118025E
:1048A00090911902A0911A02B0911B024091340319
:1048B000509135036091360370913703840F951F33
:1048C000A61FB71F8093340390933503A09336033C
:1048D000B0933703109218021092190210921A0224
:1048E00010921B027894CF52DF4F2881C15DD040D7
:1048F000CE52DF4F3881C25DD040CD52DF4F48816C
:10490000C35DD040CC52DF4F5881C45DD040CB5204
:10491000DF4F6881C55DD040CA52DF4F7881C65DE8
:10492000D040C952DF4F8881C75DD040C852DF4FA9
:104930009881C85DD040C752DF4F488059806A8057
:104940007B80C95DD040C753DF4F1881C95CD04020
:10495000C653DF4F0881CA5CD040C553DF4F388053
:10496000CB5CD040C453DF4F2880CC5CD040C353D5
:10497000DF4FC880CD5CD040CF51DF4FC882C15ED1
:10498000D040C253DF4FD880CE5CD040CB51DF4FF8
:10499000D882C55ED040C153DF4FE880CF5CD040A5
:1049A000C751DF4FE882C95ED040C053DF4FF88067
:1049B000C05DD040C351DF4FF882CD5ED040C753B9
:1049C000DF4FC880C95CD040CF50DF4FC882C15F85
:1049D000D040C653DF4FD880CA5CD040CB50DF4FA9
:1049E000D882C55FD040C553DF4FE880CB5CD04054
:1049F000C950DF4FE882C75FD040C453DF4FF88013
:104A0000CC5CD040C750DF4FF882C95FD040C35361
:104A1000DF4FC880CD5CD040C350DF4FC882CD5F30
:104A2000D040C253DF4FD880CE5CD040CF5FDE4F46
:104A3000D882C150D140C153DF4FE880CF5CD04015
:104A4000CB5FDE4FE882C550D140C053DF4FF880C6
:104A5000C05DD040C75FDE4FF882C950D140C75219
:104A6000DF4FC880D980EA80FB80C95DD040C35247
:104A7000DF4FC882D982EA82FB82CD5DD040C75227
:104A8000DF4F88809980AA80BB80C95DD0400E949A
:104A9000BD2F6B017C01C301B2010E94BA2C9B01A6
:104AA000AC01C701B6010E940F2F6B017C01212FC1
:104AB000302F432D522DCF51DF4F6881C15ED04042
:104AC000CB51DF4F7881C55ED040C751DF4F888121
:104AD000C95ED040C351DF4F9881CD5ED0400E9467
:104AE000B72F2B013C01CF50DF4F2881C15FD04051
:104AF000CB50DF4F3881C55FD040C950DF4F488170
:104B0000C75FD040C750DF4F5881C95FD040C35006
:104B1000DF4F6881CD5FD040CF5FDE4F7881C150DD
:104B2000D140CB5FDE4F8881C550D140C75FDE4F9B
:104B30009881C950D1400E94B72F9B01AC01C3019D
:104B4000B2010E94192D2B013C01C352DF4F688135
:104B500079818A819B81CD5DD0400E94BA2C9B01D6
:104B6000AC01C301B2010E940F2F2B013C01C50112
:104B7000B4010E94BA2C9B01AC01C301B2010E9496
:104B80000F2F9B01AC01C701B6010E949D2E0E9410
:104B90005D30409068015090690160906A017090AA
:104BA0006B01A30192010E94192D60933003709351
:104BB00031038093320390933303E0906E01F090C1
:104BC0006F01C950DF4FF982E882C75FD040C090C3
:104BD0005001D0905101E0905201F0905301C75F15
:104BE000DE4FC882D982EA82FB82C950D14042E1BD
:104BF00053E0CF50DF4F59834883C15FD0408CEFE3
:104C000092E0CB51DF4F99838883C55ED040ACE101
:104C1000B3E0C352DF4FB983A883CD5DD040C75105
:104C2000DF4F99838883C95ED04044E551E0C3518A
:104C3000DF4F59834883CD5ED04080EF91E0CF5164
:104C4000DF4F99838883C15ED040A4E0B2E0CB50AF
:104C5000DF4FB983A883C55FD040212C312CC950C8
:104C6000DF4FC880D980C75FD0402C143D040CF0C2
:104C7000F4C2810133E0000F111F3A95E1F7E9E733
:104C8000F0E0EC0FFD1FE00FF11F20813181428128
:104C9000538164817581D680CB5DDE4FD882C55249
:104CA000D140E780CA5DDE4FE882C652D140CB508A
:104CB000DF4FA881B981C55FD0408D909D90AD90A8
:104CC000BD90CB50DF4FB983A883C55FD040E1E5ED
:104CD000F0E0EC0FFD1FE00FF11FC080C35FDE4F5F
:104CE000C882CD50D140D180C25FDE4FD882CE5035
:104CF000D140E280C15FDE4FE882CF50D140F380E7
:104D0000C05FDE4FF882C051D140C480CF5EDE4F1D
:104D1000C882C151D140D580CE5EDE4FD882C2510B
:104D2000D140E680CD5EDE4FE882C351D140F780AE
:104D3000CC5EDE4FF882C451D140CF51DF4FA88105
:104D4000B981C15ED040CD90DD90ED90FD90CF5106
:104D5000DF4FB983A883C15ED040C750DF4FC88200
:104D6000D982EA82FB82C95FD040C752DF4FC88038
:104D7000D980EA80FB80C95DD040C753DF4FB8813E
:104D8000C95CD040CB5EDE4FB883C551D140C6531D
:104D9000DF4FE881CA5CD040CA5EDE4FE883C6516F
:104DA000D140C553DF4FF881CB5CD040C95EDE4FA8
:104DB000F883C751D140C453DF4F8881CC5CD040C9
:104DC000C85EDE4F8883C851D140C353DF4F9881FE
:104DD000CD5CD040C75EDE4F9883C951D140C253ED
:104DE000DF4FA881CE5CD040C65EDE4FA883CA519B
:104DF000D140C153DF4FB881CF5CD040C55EDE4F9C
:104E0000B883CB51D140C053DF4FE881C05DD04063
:104E1000C45EDE4FE883CC51D14081E090E08C0F3E
:104E20009D1F080F191FD801BC91C35EDE4FB883C8
:104E3000CD51D140F801F181C25EDE4FF883CE51F1
:104E4000D140D8011296BC91C15EDE4FB883CF51DC
:104E5000D140F801F381C05EDE4FF883C052D140EB
:104E6000D8011496BC91CF5DDE4FB883C152D140BA
:104E7000F801F581CE5DDE4FF883C252D140D801F2
:104E80001696BC91CD5DDE4FB883C352D140F80178
:104E9000F781CC5DDE4FF883C452D140C752DF4F5B
:104EA00088819981AA81BB81C95DD040C350DF4F01
:104EB00088839983AA83BB83CD5FD040C752DF4FDD
:104EC00088819981AA81BB81C95DD040CF5FDE4FC7
:104ED00088839983AA83BB83C150D140C351DF4FDC
:104EE000E881F981CD5ED04081919191A191B191FC
:104EF000C351DF4FF983E883CD5ED040CB5FDE4FF7
:104F000088839983AA83BB83C550D140CB5DDE4F94
:104F10008881C552D140CA5DDE4F9881C652D140CA
:104F20000E94B72FA50194010E94192D4B015C012D
:104F3000C35FDE4F2881CD50D140C25FDE4F388144
:104F4000CE50D140C15FDE4F4881CF50D140C05FCD
:104F5000DE4F5881C051D140CF5EDE4F6881C151D4
:104F6000D140CE5EDE4F7881C251D140CD5EDE4F62
:104F70008881C351D140CC5EDE4F9881C451D1406D
:104F80000E94B72FC750DF4F288139814A815B814A
:104F9000C95FD0400E94192D9B01AC01C501B4012D
:104FA0000E949E2E4B015C01C701B6010E94BA2CE3
:104FB0009B01AC01C501B4010E940F2F6B017C0164
:104FC000CB5EDE4F2881C551D140CA5EDE4F3881AD
:104FD000C651D140C95EDE4F4881C751D140C85E3D
:104FE000DE4F5881C851D140C75EDE4F6881C9513C
:104FF000D140C65EDE4F7881CA51D140C55EDE4FDA
:105000008881CB51D140C45EDE4F9881CC51D140D4
:105010000E94B72F4B015C01C35EDE4F2881CD514A
:10502000D140C25EDE4F3881CE51D140C15EDE4FED
:105030004881CF51D140C05EDE4F5881C052D1402F
:10504000CF5DDE4F6881C152D140CE5DDE4F7881A9
:10505000C252D140CD5DDE4F8881C352D140CC5D7C
:10506000DE4F9881C452D1400E94B72F9B01AC0102
:10507000C501B4010E94192D4B015C01C350DF4FE3
:10508000688179818A819B81CD5FD0400E94BA2C52
:105090009B01AC01C501B4010E940F2F4B015C01C3
:1050A000CF5FDE4F688179818A819B81C150D14079
:1050B0000E94BA2C9B01AC01C501B4010E940F2FC4
:1050C0009B01AC01C701B6010E949D2EA301920174
:1050D0000E94192DCB5FDE4F288139814A815B8187
:1050E000C550D1400E94192D6B017C01F801B89682
:1050F000D80198968C918181828183818481858178
:1051000086818781C752DF4F88819981AA81BB81BF
:10511000C95DD040F8018081818182818381848151
:10512000858186818781808181818281838184815B
:10513000858186818781C752DF4F88819981AA81C5
:10514000BB81C95DD040C752DF4F88819981AA8158
:10515000BB81C95DD04020E030E040E05FE3C701A3
:10516000B6010E949E2E0E94812FCF50DF4FA88152
:10517000B981C15FD0406D937D93CF50DF4FB9832C
:10518000A883C15FD040C751DF4FE881F981C95E74
:10519000D04081909190A190B190C751DF4FF98399
:1051A000E883C95ED040C75FDE4F288139814A81DC
:1051B0005B81C950D140C701B6010E94192DA501DC
:1051C00094010E949E2E6B017C0120E030E041E6BC
:1051D00055E40E940F2F0E94812F072E000C880B90
:1051E000990BC352DF4FA881B981CD5DD0400D919D
:1051F0001D912D913C911397060F171F281F391FE2
:10520000FD010193119321933193C352DF4FF98331
:10521000E883CD5DD0400E94BA2C20E030E041E62A
:1052200055E40E94192D9B01AC01C701B6010E94F3
:105230009D2ECB51DF4FA881B981C55ED0406D93C3
:105240007D938D939D93CB51DF4FB983A883C55E2A
:10525000D040BFEF2B1A3B0A02CD8091FB0288237E
:1052600009F4BCC0512C90EC692E96E7792E26E00B
:10527000422E8091FA02581608F0A2C02DEC3CECA8
:105280004CE45EE3609150017091510180915201B4
:10529000909153010E94B32C052D10E087FD06C0AC
:1052A00088E795E00E94AA1681110BC0000F111F1C
:1052B000E091F802F091F902E00FF11F7182608233
:1052C0007DC040E065E588E795E00E9457166801DB
:1052D000B3E0CC0CDD1CBA95E1F7E12CF12CE091A8
:1052E000F602F091F702EC0DFD1DEE0DFF1D40E002
:1052F000608188E795E00E945716EFEFEE1AFE0AEC
:10530000F8E0EF16F10459F740E06EEB88E795E01E
:105310000E9457167E0121EAE20EF11C470149E086
:10532000840E911C6701A8E0AA2EB12C312C2224F6
:10533000239488E795E00E94041681113228220CFC
:1053400051E0A51AB108A9F7D7013D927D018A164F
:105350009B0649F768E0C6010E94EC15F6019085AE
:1053600089131AC020813181429EC001439E900D55
:1053700011243595279535952795820F931F803CED
:10538000F6E79F0759F09C0124583A4E21353644E0
:1053900028F088EF95E702C080EC96E7000F111F18
:1053A000E091F802F091F902E00FF11F9183808300
:1053B00065E070E080E090E00E948C17539459CF34
:1053C00010914F0117FD08C061E0812F0E9439172D
:1053D00060E0812F0E940A171092EF018091420332
:1053E00090914303A0914403B0914503892B8A2BEC
:1053F0008B2B79F48091D702882309F427C286EE9B
:1054000092E00E94EE1165E070E080E090E00E9482
:105410008C178091420390914303A0914403B09173
:1054200045030196A11DB11D809342039093430350
:10543000A0934403B093450380914103882309F46A
:1054400008C28091120390911303909349038093B3
:10545000480380911C0390911D03A0911E03B091FD
:105460001F038093500390935103A0935203B09372
:10547000530381E090E020914003222309F4F8C116
:10548000FC01EE0FFF1FEE5EFC4F20813181309357
:105490004B0320934A03FC01EE0FFF1FEE0FFF1F8B
:1054A000E45EFC4F408151816281738140935403DB
:1054B00050935503609356037093570301962091C0
:1054C0003F03222309F4E1C1FC01EE0FFF1FEE5E52
:1054D000FC4F2081318130934D0320934C03FC011C
:1054E000EE0FFF1FEE0FFF1FE45EFC4F4081518166
:1054F00062817381409358035093590360935A0318
:1055000070935B03019620913E03222309F4CAC1E4
:10551000FC01EE0FFF1FEE5EFC4F208131813093C6
:105520004F0320934E03880F991F880F991FFC018A
:10553000E45EFC4F80819181A281B38180935C0302
:1055400090935D03A0935E03B0935F0320E030E08F
:1055500048EC52E460913003709131038091320342
:10556000909133030E94192D0E94812F709347035D
:1055700060934603809138039091390390936103BF
:105580008093600380913A0390913B03909363036F
:105590008093620380913C0390913D039093650357
:1055A000809364038091340390913503A091360376
:1055B000B09137038093660390936703A0936803C9
:1055C000B093690388E2E2E4F3E0DE01AF55BF4F38
:1055D00001900D928A95E1F7FE01EF55FF4F95E599
:1055E0009F01285D3F4F808189278193E217F30750
:1055F000D1F7CE018F559F4F0E94D31362E370E025
:1056000080E090E00E948C1785ED92E00E94D3111B
:10561000609142037091430380914403909145034C
:105620004AE00E94B5108EEC92E00E94D311609186
:10563000460370914703072E000C880B990B0E94BC
:10564000BA2C2AE037ED43E25CE30E94192D42E0D8
:105650000E94F61080914103882351F089EC92E07A
:105660000E94D31180914803909149030E94211216
:1056700080914003882351F084EC92E00E94D31182
:1056800080914A0390914B030E94211280913F0325
:10569000882351F08FEB92E00E94D31180914C034C
:1056A00090914D030E94211280913E03882351F076
:1056B0008AEB92E00E94D31180914E0390914F03A8
:1056C0000E94211280914103882379F085EB92E0BA
:1056D0000E94D31160915003709151038091520345
:1056E000909153034AE00E94B510809140038823B3
:1056F00079F080EB92E00E94D31160915403709195
:10570000550380915603909157034AE00E94B510CB
:1057100080913F03882379F08BEA92E00E94D311B5
:10572000609158037091590380915A0390915B03E3
:105730004AE00E94B51080913E03882379F086EA02
:1057400092E00E94D31160915C0370915D0380919F
:105750005E0390915F034AE00E94B51000916003E0
:1057600010916103003355E7150799F081EA92E043
:105770000E94D311B801110F880B990B0E94BA2C0B
:105780002AE037ED43E25CE30E94192D42E00E94DB
:10579000F6100091620310916303003385E7180748
:1057A00099F08CE992E00E94D311B801110F880B97
:1057B000990B0E94BA2C2AE037ED43E25CE30E9489
:1057C000192D42E00E94F6100091640310916503C8
:1057D000003395E7190799F087E992E00E94D31109
:1057E000B801110F880B990B0E94BA2C2AE037EDF3
:1057F00043E25CE30E94192D42E00E94F6108FE81C
:1058000092E00E94D31160916603709167038091CA
:105810006803909169034AE00E94B5108DE991E018
:105820000E94A31064E170E080E090E00E948C1779
:10583000A89564E170E080E090E00E948C170E94DF
:1058400052050C944E211F5F0C94C61E8AED92E007
:10585000D8CD109249031092480310925003109231
:105860005103109252031092530380E090E003CE54
:1058700010924B0310924A03109254031092550356
:1058800010925603109257031ACE10924D031092A5
:105890004C03109258031092590310925A0310921D
:1058A0005B0331CE10924F0310924E0310925C03B3
:1058B00010925D0310925E0310925F0347CE1D307D
:1058C00010F00C94A41E0C94AA1EE8ECF4E01382D1
:1058D000128288EE93E0A0E0B0E084839583A683F3
:1058E000B78384E891E09183808385EC90E095878D
:1058F000848784EC90E09787868780EC90E0918B9A
:10590000808B81EC90E0938B828B82EC90E0958B86
:10591000848B86EC90E0978B868B118E128E138E83
:10592000148E80E094E0909389058093880580E24E
:1059300090E09093870580938605809174010E9482
:10594000A813E5E6F5E085E095E1928B818B88E789
:1059500095E0968385831482108289E0818381E0BB
:105960008283838308950E94F52C08F481E00895D2
:10597000E89409C097FB3EF49095809570956195E9
:105980007F4F8F4F9F4F9923A9F0F92F96E9BB279F
:105990009395F695879577956795B795F111F8CF1B
:1059A000FAF4BB0F11F460FF1BC06F5F7F4F8F4F86
:1059B0009F4F16C0882311F096E911C0772321F07C
:1059C0009EE8872F762F05C0662371F096E8862F14
:1059D00070E060E02AF09A95660F771F881FDAF76B
:1059E000880F9695879597F90895990F0008550F98
:1059F000AA0BE0E8FEEF16161706E807F907C0F055
:105A000012161306E407F50798F0621B730B840B5C
:105A1000950B39F40A2661F0232B242B252B21F436
:105A200008950A2609F4A140A6958FEF811D811DD6
:105A300008950E942C2D0C949D2D0E948F2D38F0DE
:105A40000E94962D20F0952311F00C94862D0C9435
:105A50008C2D11240C94D12D0E94AE2D70F3959FA6
:105A6000C1F3950F50E0551F629FF001729FBB2755
:105A7000F00DB11D639FAA27F00DB11DAA1F649FF1
:105A80006627B00DA11D661F829F2227B00DA11DA4
:105A9000621F739FB00DA11D621F839FA00D611D2A
:105AA000221F749F3327A00D611D231F849F600D4B
:105AB000211D822F762F6A2F11249F5750409AF074
:105AC000F1F088234AF0EE0FFF1FBB1F661F771F00
:105AD000881F91505040A9F79E3F510580F00C94CB
