:100000000C949C030C9486050C945F050C94C4031B
:100010000C94C4030C94C4030C94C4030C94C40344
:100020000C94C4030C94C4030C94C4030C94C40334
:100030000C94C4030C94C4030C94C4030C94C40324
:100040000C94A2150C94C4030C94D3050C94AD0528
:100050000C94C4030C9405060C94C4030C94C403C0
:100060000C94C4030C94C403F30E6A0F6A0F6A0F56
:100070006A0F280F6A0FE10E6A0F6A0F3E0F6A0FB0
:100080006A0F6A0F6A0F6A0F410F5A0F6A0F6A0FE1
:100090005F0F6A0F740F05A84CCDB2D44EB9383635
:1000A000A9020C50B9918688083CA6AAAA2ABE00CB
:1000B0000000803F4E6F20454550524F4D207365E4
:1000C0007474696E6720666F756E642E2E2E75735C
:1000D000696E672064656661756C742076616C7505
:1000E0006573004552524F5220454550524F4D20A6
:1000F000636F6E66696720696E76616C69642E2E27
:100100002E7573696E672064656661756C74207600
:10011000616C756573004C6F6164696E672045455D
:1001200050524F4D20636F6E6669672E2E2E00452C
:100130006E746572696E6720636F6E666967206DA5
:100140006F64652E2E2E00272B2B2B2720746865BD
:100150006E205B456E7465725D206E6F7720746FE4
:1001600020656E74657220636F6E666967206D6FBF
:1001700064652E2E2E357300555341205663616CF5
:10018000206163746976653A2000646573637269FF
:1001900062653A456D6F6E545833434D002C70754F
:1001A0006C73653A002C54333A002C54323A002CCC
:1001B00054313A002C45343A002C45333A002C4552
:1001C000323A002C45313A002C50343A002C50334E
:1001D0003A002C50323A002C50313A002C56726DB5
:1001E000733A004D53473A0069344C656164203DD1
:1001F0002000693443616C203D200069334C656107
:1002000064203D2000693343616C203D2000693249
:100210004C656164203D2000693243616C203D20C3
:100220000069314C656164203D2000693143616C97
:10023000203D20007643616C203D200043616C69C5
:1002400062726174696F6E3A00446F6E652E2E2E75
:100250006E657720636F6E6669672073617665648B
:1002600020746F20454550524F4D2E2052657365C6
:100270007474696E6720696E20357300446F6E6513
:100280002E2E2E656D6F6E54782077696C6C2072FF
:1002900065736574207573696E6720646566617542
:1002A0006C742073657474696E677320696E203591
:1002B000730045726173696E6720454550524F4D1A
:1002C0002E2E2E002000656D6F6E54782056332E32
:1002D0003420456D6F6E4C6962434D20436F6E74E0
:1002E000696E756F7573204D6F6E69746F72696E8C
:1002F000672056005D005B47726F757020005D00DF
:100300003931354D487A003836384D487A00343323
:10031000334D487A005B467265713A20005D005BA0
:100320004E6F6465200000000000240027002A00B2
:1003300000000000250028002B000000000800023B
:100340000100000304070000000000000000005E40
:10035000BCE2613FDD83C29C7E20A3FD1F41009D66
:1003600023BE46DB65F88C11AF32CA57E974000032
:1003700000002300260029000404040404040404EB
:100380000202020202020303030303030102040840
:1003900010204080010204081020010204081020EF
:1003A0000A417661696C61626C6520636F6D6D6195
:1003B0006E647320666F7220636F6E666967206477
:1003C0007572696E672073746172742D75703A0A64
:1003D00020203C6E6E6E3E67202020202D2073650D
:1003E00074204E6574776F726B2047726F75700A58
:1003F00020203C6E6E3E6920202020202D20736539
:1004000074206E6F646520494420287374616E64A3
:10041000617264206E6F6465206964732061726527
:1004200020312E2E3330290A20203C6E3E622020BF
:10043000202020202D20736574204D487A20626191
:100440006E64202834203D203433332C2038203D66
:10045000203836382C2039203D20393135290A20E2
:1004600020722020202020202020202D2072657343
:10047000746F72652064656661756C74732028659D
:100480007261736520454550524F4D290A202073F3
:100490002020202020202020202D20736176652020
:1004A000636F6E66696720746F20454550524F4DEB
:1004B0000A2020762020202020202020202D2053BC
:1004C000686F77206669726D7761726520766572F4
:1004D00073696F6E0A2020782020202020202020A1
:1004E000202D206578697420616E6420636F6E74BE
:1004F000696E75650A0A417661696C61626C652096
:10050000636F6D6D616E6473207768656E207275C0
:100510006E6E696E673A0A20206B3C783E203C790B
:10052000792E793E203C7A7A2E7A3E0A20202020AD
:1005300020202020202020202D2043616C69627221
:1005400061746520616E20616E616C6F67756520F6
:10055000696E707574206368616E6E656C3A0A200E
:1005600020202020202020202020202D2078203D09
:1005700020612073696E676C65206E756D657261B0
:100580006C3A2030203D20766F6C74616765206383
:10059000616C6962726174696F6E2C2031203D203C
:1005A0006374312063616C6962726174696F6E2C6F
:1005B0002032203D206374322063616C6962726175
:1005C00074696F6E2C206574630A2020202020201F
:1005D0002020202020202D2079792E79203D206197
:1005E00020666C6F6174696E6720706F696E74202D
:1005F0006E756D62657220666F7220746865207614
:100600006F6C746167652F63757272656E742063B9
:10061000616C6962726174696F6E20636F6E73746E
:10062000616E740A202020202020202020202020FD
:100630002D207A7A2E7A203D206120666C6F6174BD
:10064000696E6720706F696E74206E756D62657279
:1006500020666F722074686520706861736520631E
:10066000616C6962726174696F6E20666F7220746A
:1006700068697320632E742E20287A206973206E97
:100680006F74206E65656465642C206F72206967E5
:100690006E6F72656420696620737570706C696531
:1006A000642C207768656E2078203D2030290A2050
:1006B00020202020202020202020202D20652E6793
:1006C0002E206B30203235362E380A202020202074
:1006D000202020202020202D2020202020206B31B1
:1006E0002039302E3920322E30300A20206C202044
:1006F000202020202020202D206C69737420746815
:100700006520636F6E6669672076616C7565730A34
:100710002020732020202020202020202D207361E5
:10072000766520636F6E66696720746F204545505B
:10073000524F4D0A00007B2811241FBECFEFD8E096
:10074000DEBFCDBF24E0ACEAB1E001C01D92AE3EF9
:10075000B207E1F711E0A0E0B1E0EEE1FEE502C092
:1007600005900D92AC3AB107D9F713E0CCE9D3E08C
:1007700004C02197FE010E94952ACB39D107C9F701
:100780000E94EC150C940D2F0C9400000895CF924C
:10079000DF92EF92FF920F931F93CF93DF936C0141
:1007A0007A018B01C0E0D0E0CE15DF0581F0D801E1
:1007B0006D918D01D601ED91FC910190F081E02DBC
:1007C000C6010995892B11F02196EECF7E01C70154
:1007D000DF91CF911F910F91FF90EF90DF90CF901D
:1007E0000895089580E090E00895FC01538D448DB4
:1007F000252F30E0842F90E0821B930B541710F0CC
:10080000CF96089501970895FC01918D828D9817D8
:1008100061F0828DDF01A80FB11D5D968C91928DE4
:100820009F5F9F73928F90E008958FEF9FEF0895E1
:10083000FC01918D828D981731F0828DE80FF11DAA
:10084000858D90E008958FEF9FEF0895FC01918DC5
:10085000228D892F90E0805C9F4F821B91098F73BE
:10086000992708958FE194E00E94260421E0892BC6
:1008700009F420E0822F0895FC01848DDF01A80F88
:10088000B11DA35ABF4F2C91848D90E001968F73B8
:100890009927848FA689B7892C93A089B1898C91D7
:1008A000837080648C93938D848D981306C0028826
:1008B000F389E02D80818F7D80830895EF92FF92F0
:1008C0000F931F93CF93DF93EC0181E0888F9B8D73
:1008D0008C8D981305C0E889F989808185FD26C033
:1008E000F62E0B8D10E00F5F1F4F0F731127E02EB8
:1008F0008C8DE8120CC00FB607FCFACFE889F98995
:10090000808185FFF5CFCE010E943C04F1CF8B8D15
:10091000FE01E80FF11DE35AFF4FF0829FB7F894F4
:100920000B8FEA89FB89808180620AC09FB7F894A7
:10093000EE89FF896083E889F9898081837080640A
:1009400080839FBF81E090E0DF91CF911F910F9155
:10095000FF90EF900895CF93DF93EC01888D88236B
:10096000C9F0EA89FB89808185FD05C0A889B9891C
:100970008C9186FD0FC00FB607FCF5CF808185FFF7
:10098000F2CFA889B9898C9185FFEDCFCE010E9465
:100990003C04E7CFDF91CF91089580E090E0892B70
:1009A00029F00E94320481110C94000008950E94E5
:1009B000EF2E0F931F938091030190910401A0915A
:1009C0000501B0910601892B8A2B8B2BD9F10E944E
:1009D000961500911B0410911C0420911D04309168
:1009E0001E04DC01CB01801B910BA20BB30B009109
:1009F00003011091040120910501309106010817AF
:100A000019072A073B0798F480910E0290910F0274
:100A1000A0911002B09111020196A11DB11D809309
:100A20000E0290930F02A0931002B09311020E9445
:100A3000961560931B0470931C0480931D0490937F
:100A40001E0413C080910E0290910F02A09110021B
:100A5000B09111020196A11DB11D80930E029093D9
:100A60000F02A0931002B09311021F910F910895ED
:100A70000F931F93CF93DF93EC01888199810097A7
:100A800029F02A813B812617370788F48B016F5F95
:100A90007F4F0E94292E009761F0998388831B83E2
:100AA0000A832C813D81232B11F4FC01108281E00B
:100AB00001C080E0DF91CF911F910F9108951F92A7
:100AC0000F920FB60F9211242F933F934F935F9382
:100AD0006F937F938F939F93AF93BF93EF93FF9306
:100AE000E0917201F09173010995FF91EF91BF912F
:100AF000AF919F918F917F916F915F914F913F91B6
:100B00002F910F900FBE0F901F9018951F920F926C
:100B10000FB60F9211242F933F934F935F936F93D0
:100B20007F938F939F93AF93BF93EF93FF93E09146
:100B30007001F09171010995FF91EF91BF91AF9113
:100B40009F918F917F916F915F914F913F912F91E5
:100B50000F900FBE0F901F9018951F920F920FB617
:100B60000F9211242F933F934F935F936F937F9333
:100B70008F939F93AF93BF93EF93FF938FE194E095
:100B80000E943C04FF91EF91BF91AF919F918F9193
:100B90007F916F915F914F913F912F910F900FBE79
:100BA0000F901F9018951F920F920FB60F9211245D
:100BB0002F938F939F93EF93FF93E0912F04F091E6
:100BC00030048081E0913504F091360482FD12C03A
:100BD0009081809138048F5F8F7320913904821740
:100BE00051F0E0913804F0E0E15EFB4F958F809387
:100BF000380401C08081FF91EF919F918F912F91D7
:100C00000F900FBE0F901F9018951F920F920FB666
:100C10000F9211242F923F924F925F926F927F9288
:100C20008F929F92AF92BF92CF92DF92EF92FF92FC
:100C30000F931F932F933F934F935F936F937F93E4
:100C40008F939F93AF93BF93EF93FF93CF93DF93D4
:100C5000CDB7DEB72597DEBFCDBF209078003090AE
:100C6000790080911A04E2E0E80F20916E01309142
:100C70006F014E2F50E0241735071CF4E1E0E80F18
:100C8000E21BF0E0E65FFE4F8081805C80937C0099
:100C90008091DA019091DB01A091DC01B091DD013E
:100CA0000196A11DB11D8093DA019093DB01A09301
:100CB000DC01B093DD0180911A0481112EC4809172
:100CC000180490911904909317048093160480914E
:100CD000DF049091E004969587959101281B390BCC
:100CE000C901309319042093180420911404309101
:100CF0001504A9015695479556954795241B350B24
:100D0000AC0197FF04C044275527481B590B240FFB
:100D1000351F309315042093140441E06091DD04E5
:100D20007091DE046217730708F040E040931304EB
:100D3000181619063CF481E090E090931204809319
:100D4000110404C010921204109211042091110495
:100D5000309112048091FB039091FC03281739070E
:100D600031F0809161038F5F8093610302C0109224
:100D7000610380916103833030F0109261033093FE
:100D8000FE032093FD03809164038823B1F087E084
:100D900080937A0080917A00806880937A008091B5
:100DA0007A0080937A0080917A0080937A00809113
:100DB0007A0080937A00109264038091130460910A
:100DC0006E0170916F01882309F4BBC12091FD036E
:100DD0003091FE038091FB039091FC03213031059B
:100DE00009F0A7C1019709F426C38091620390918D
:100DF000630301969093630380936203209109013A
:100E0000222309F46EC00A970CF46BC010920901FA
:100E1000109263031092620309EC13E0A1EAB3E0BD
:100E2000F9E7EF2EF3E0FF2E25E633E080E090E0D7
:100E300086179707B4F5F801108211821282138287
:100E40001482158216821782085F1F4F1C9211961A
:100E50001C92119712961C92129713961C9213973C
:100E600014961C92149715961C92159716961C9220
:100E7000169717961C9217971896F70110821182F1
:100E8000128213821482158216821782F8E0EF0E06
:100E9000F11CF90111921192119211929F01019688
:100EA000C7CF10920304109204041092050410920C
:100EB000060410920704109208041092090410927C
:100EC0000A041092FF031092000410920104109281
:100ED000020410920D0410920E0410920F0410924E
:100EE000100480916203909163032091D8013091A6
:100EF000D9018217930739F420910901211103C008
:100F000021E02093CC022091E2013091E30182178D
:100F100093070CF490C28091090181118CC2109248
:100F200063031092620329EC33E03B832A83A1EA36
:100F3000B3E049E753E05D834C8305E613E0C90164
:100F400040E050E0461757070CF0A4C0FC01608059
:100F5000718082809380C480D580E680F780089677
:100F60009A01F3E0220F331FFA95E1F7F901E657F2
:100F7000FD4F6082718282829382C482D582E68232
:100F8000F7826C9011967C90119712968C90129724
:100F900013969C9013971496CC9014971596DC900A
:100FA00015971696EC9016971796FC901797F901DF
:100FB000EE59FD4F6082718282829382C482D58213
:100FC000E682F782EA81FB8110821182128213820B
:100FD00014821582168217823896FB83EA831C924C
:100FE00011961C92119712961C92129713961C92AE
:100FF000139714961C92149715961C921597169693
:101000001C92169717961C921797EC81FD816080B1
:10101000718082809380C480D580E680F780F9015A
:10102000E65CFD4F6082718282829382C482D582A7
:10103000E682F782EC81FD81108211821282138296
:101040001482158216821782F801408051806280D6
:10105000738053014201BB0C8808982C54012E5E0A
:101060003D4FF9014082518262827382848285827F
:1010700086828782F80111921192119211928F014A
:101080004F5F5F4F18962C813D81285F3F4F3D8316
:101090002C8358CF8091FF0390910004A09101040C
:1010A000B0910204AC01BD01770F440B542FBA017B
:1010B0008093B7029093B802A093B902B093BA029A
:1010C0004093BB024093BC024093BD024093BE02DA
:1010D000709103046091040450910504409106044A
:1010E00030910704209108049091090480910A042A
:1010F0007093BF026093C0025093C1024093C2023A
:101100003093C3022093C4029093C5028093C60219
:101110001092030410920404109205041092060425
:1011200010920704109208041092090410920A0405
:101130005FC1892B09F47FC110920C0410920B043B
:101140007AC18091DA019091DB01A091DC01B0912C
:10115000DD010091D4011091D5012091D60130918B
:10116000D701081719072A073B0748F42091E50122
:10117000211105C021E02093CC022093E5010091CC
:10118000DE011091DF012091E0013091E1010817AB
:1011900019072A073B0708F04EC11092DA01109296
:1011A000DB011092DC011092DD0181E080930901E6
:1011B000109263031092620389EC93E041EA642E7B
:1011C00043E0742EE9E7F3E005E613E040E050E089
:1011D000461757070CF0BEC02A0123E0440C551CEB
:1011E0002A95E1F7920126573D4FD9011C9211969D
:1011F0001C92119712961C92129713961C92139799
:1012000014961C92149715961C92159716961C927C
:10121000169717961C9292012E593D4FD9011C9298
:1012200011961C92119712961C92129713961C926B
:10123000139714961C92149715961C921597169650
:101240001C92169717961C92DC011C9211961C9208
:10125000119712961C92129713961C92139714963C
:101260001C92149715961C92159716961C92169719
:1012700017961C920896D3011C9211961C921197F6
:1012800012961C92129713961C92139714961C9206
:10129000149715961C92159716961C9216971796EA
:1012A0001C92B8E06B0E711C80809180A280B3808C
:1012B000C480D580E680F7809201265C3D4FD9013D
:1012C0008C9211969C9211971296AC92129713964B
:1012D000BC9213971496CC9214971596DC9215979E
:1012E0001696EC9216971796FC9210821182128233
:1012F000138214821582168217823896D801CD90F7
:10130000DD90ED90FC9046015701BB0C8808982CAD
:101310005401D201AE5EBD4FCC921196DC92119772
:101320001296EC9212971396FC92139714968C9245
:10133000149715968C92159716968C921697179669
:101340008C92D8011D921D921D921D928D014F5FAE
:101350005F4F3ECF709103046091040450910504E7
:1013600040910604309107042091080490910904EB
:1013700080910A047093BF026093C0025093C1022F
:101380004093C2023093C3022093C4029093C502DB
:101390008093C60210920304109204041092050474
:1013A0001092060410920704109208041092090487
:1013B00010920A048091FF0390910004A09101040F
:1013C000B0910204AC01BD01770F440B542FBA0158
:1013D0008093B7029093B802A093B902B093BA0277
:1013E0004093BB024093BC024093BD024093BE02B7
:1013F0001092FF0310920004109201041092020454
:1014000080910D0490910E04A0910F04B0911004EE
:101410008093C7029093C802A093C902B093CA02F6
:1014200010920D0410920E0410920F0410921004EA
:1014300081E08093CB0280910D0490910E04A091E5
:101440000F04B09110040196A11DB11D80930D04ED
:1014500090930E04A0930F04B093100480910B049A
:1014600090910C04019690930C0480930B04E091EE
:101470001804F09119049F01DF010E949B2A6B015F
:101480007C01FF0CCC08DC2C76019B01AC016C2D9F
:101490007C2D8C2D9C2DA0900304B0900404C09052
:1014A0000504D0900604E0900704F0900804009131
:1014B000090410910A040E94AA2A2093030430937D
:1014C000040440930504509306046093070470934A
:1014D00008048093090490930A04CF01FF0FAA0B1C
:1014E000BB0B4091FF035091000460910104709187
:1014F0000204840F951FA61FB71F8093FF039093CC
:101500000004A0930104B09302048091FD03909124
:10151000FE039093FC038093FB03E0911A04E9839C
:10152000E0916E01F0916F01FB83EA83F981FF2363
:1015300009F4FFC04F2E512CEA81FB81E415F5051B
:101540000CF4F7C09201215031094901F901EE5420
:10155000FD4F36E0231631040CF4E3C081E08083B4
:10156000F401EE0FFF1FEF50FC4F8091DF049091CC
:10157000E0049695879560807180681A790A718277
:101580006082A0911604B0911704F40133E0EE0FCD
:10159000FF1F3A95E1F7AF0147535C4F5D834C83E2
:1015A00093010E949B2A6B017C01FF0CCC08DC2C70
:1015B00076019B01AC016C2D7C2D8C2D9C2DAC817A
:1015C000BD81AC901196BC9011971296CC90129759
:1015D0001396DC9013971496EC9014971596FC9044
:1015E000159716960C91169717961C9117970E94AF
:1015F000AA2A2C9311963C93119712964C9312970A
:1016000013965C93139714966C93149715967C938A
:10161000159716968C93169717969C93A09118047D
:10162000B09119049F012F553C4F3D832C839301AA
:101630000E949B2A6B017C01FF0CCC08DC2C7601FC
:101640009B01AC016C2D7C2D8C2D9C2DAC81BD8122
:10165000AC901196BC9011971296CC90129713965D
:10166000DC9013971496EC9014971596FC901597B0
:1016700016960C91169717961C9117970E94AA2AF6
:101680002C9311963C93119712964C9312971396A4
:101690005C93139714966C93149715967C931597F7
:1016A00016968C93169717969C93E758FC4F9301C8
:1016B000D3010E949B2A6B017C01FF0CCC08DC2C1F
:1016C00076019B01AC016C2D7C2D8C2D9C2DA08076
:1016D000B180C280D380E480F580068117810E94AA
:1016E000AA2A20833183428353836483758386834C
:1016F0009783F401EE0FFF1FEE0FFF1FEB59FC4F16
:10170000C301770CAA0BBB0B4081518162817381AD
:10171000840F951FA61FB71F80839183A283B38375
:1017200001C01082F201EE0FFF1FE151FC4F318228
:1017300020825980539450921A04852D90E0EA81BA
:10174000FB81E817F90714F410921A040F900F9018
:101750000F900F900F90DF91CF91FF91EF91BF917C
:10176000AF919F918F917F916F915F914F913F9139
:101770002F911F910F91FF90EF90DF90CF90BF902E
:10178000AF909F908F907F906F905F904F903F9021
:101790002F900F900FBE0F901F901895CF92DF9251
:1017A000EF92FF92CF93DF93EC019093250180930A
:1017B0002401BC01990F880B990B0E94D02820911D
:1017C00050013091510140915201509153010E94BA
:1017D0002F290E94972B6B017C017093E30160938A
:1017E000E20180910801807790E025E0959587954A
:1017F0002A95E1F723E030E0A901481B590B20EFBF
:1018000032E002C0359527954A95E2F7DE010E9445
:101810009B2A28E13CEF4FEF5FEF0E94762A81E0A0
:10182000C81AD1082C0D3D1D3093D9012093D80141
:10183000DF91CF91FF90EF90DF90CF9008952F929E
:101840003F924F925F926F927F928F929F92AF9250
:10185000BF92CF92DF92EF92FF920F931F93CF939D
:10186000DF93CDB7DEB727970FB6F894DEBF0FBE74
:10187000CDBF8D832A013B0109831A832B833C83CF
:101880006091240170912501072E000C880B990BA3
:101890000E94D0284B015C0180916E0190916F01F4
:1018A000019628E6289FB001299F700D1124072E6C
:1018B000000C880B990B0E94D0282BED3FE049ECDF
:1018C00050E40E942F29A50194010E942F2920E0B5
:1018D00034E244E759E40E94252B6B017C018D81A1
:1018E000E82FF0E0E55AFC4F008110E0D801AA0F84
:1018F000BB1FAA0FBB1FBF83AE83AC5ABE4F1D01D7
:1019000020912701309128014091290150912A010D
:10191000C301B2010E942F292B013C016091DF0419
:101920007091E00480E090E00E94CE289B01AC0121
:10193000C301B2010E94252BF10160837183828370
:101940009383EE81FF81E05FFE4F89819A81AB81B5
:10195000BC8180839183A283B383F801E65FFE4F4D
:10196000618170E080E090E00E94D02820E030E0CB
:1019700040ED52E40E942F29A50194010E942F29D5
:1019800020E034E244E759E40E94252B4B015C013E
:1019900020E030E044EB53E469817A818B819C81C3
:1019A0000E94252B9B01AC01C501B4010E94B42A01
:1019B0002BED3FE049EC50E40E942F292B013C0124
:1019C0000E94652C4B015C01C701B6010E94652C89
:1019D0009B01AC01C501B4010E94252B4B015C01A8
:1019E000EE81FF81EA51FE4F60837183828393838E
:1019F000C301B2010E94202B2B013C01C701B6019B
:101A00000E94202B9B01AC01AE81BF81A650BE4F2E
:101A1000BA83A983C501B4010E942F299B01AC019F
:101A2000C301B2010E94B32AE981FA816083718304
:101A30008283938327960FB6F894DEBF0FBECDBF87
:101A4000DF91CF911F910F91FF90EF90DF90CF909A
:101A5000BF90AF909F908F907F906F905F904F90CE
:101A60003F902F900895EF92FF920F931F93CF9383
:101A7000DF93E091E401CE2FD0E07E01EE0CFF1C5D
:101A8000EE0CFF1CD701AC5ABE4F4D935D936D9386
:101A90007C931397D701A05FBE4F0D931D932D9399
:101AA0003C931397DE01AE54BD4F91E09C93A82F59
:101AB000B0E0A55ABC4FEC93EF5FE093E401F0E097
:101AC000E65FFE4F8083DF91CF911F910F91FF90D2
:101AD000EF9008950F931F93CF93DF9383E991E0E5
:101AE0000E940A1080E991E00E940A10809126016C
:101AF0008093AC01809102018093AD01809100013F
:101B00008093AE0180914B0190914C01A0914D01C9
:101B1000B0914E018093AF019093B001A093B101B9
:101B2000B093B2018091470190914801A091490181
:101B3000B0914A018093B3019093B401A093B50191
:101B4000B093B6018091430190914401A091450169
:101B5000B09146018093B7019093B801A093B90169
:101B6000B093BA0180913F0190914001A091410151
:101B7000B09142018093BB019093BC01A093BD0141
:101B8000B093BE0180913B0190913C01A0913D0139
:101B9000B0913E018093BF019093C001A093C10119
:101BA000B093C2018091370190913801A091390121
:101BB000B0913A018093C3019093C401A093C501F1
:101BC000B093C6018091330190913401A091350109
:101BD000B09136018093C7019093C801A093C901C9
:101BE000B093CA0180912F0190913001A0913101F1
:101BF000B09132018093CB019093CC01A093CD01A1
:101C0000B093CE0180912B0190912C01A0912D01D8
:101C1000B0912E018093CF019093D001A093D10178
:101C2000B093D2010CEA11E0C0E0D0E0F80161917C
:101C30008F01CE010E94F5292196C732D105B1F757
:101C4000C0E0D0E0CE010E94ED29682F70E080E076
:101C500090E04AE00E941C102196C732D10591F70E
:101C60008DE991E00E940A1082E991E00E940A1039
:101C700080E991E00E940A1089E492E00E945511E7
:101C800068E873E180E090E0DF91CF911F910F91C0
:101C90000C9437158CE392E00E94551184E392E096
:101CA0000E943A1160914B0170914C0180914D015D
:101CB00090914E010E942B118BE292E00E943A110A
:101CC00060914701709148018091490190914A01CA
:101CD0000E942B1181E292E00E943A11609143012F
:101CE0007091440180914501909146010E942B1111
:101CF00088E192E00E943A1160913F0170914001A9
:101D000080914101909142010E942B118EE092E05E
:101D10000E943A1160913B0170913C0180913D011C
:101D200090913E010E942B1185E092E00E943A11B1
:101D300060913701709138018091390190913A0199
:101D40000E942B118BEF91E00E943A1160913301B8
:101D50007091340180913501909136010E942B11D0
:101D600082EF91E00E943A1160912F017091300151
:101D700080913101909132010E942B1188EE91E007
:101D80000E943A1160912B0170912C0180912D01DC
:101D900090912E010C942B11CF93DF9381320CF490
:101DA0009FC0082E000C990BAA0BBB0BFC01E2563E
:101DB000F109E731F10508F08DC0EC5CFF4F0C94A0
:101DC000952A8091D3018111809326018FE193E0C0
:101DD0000E943A11809126018F7190E00E947A1141
:101DE0008DE193E032C08091D301843031F08830AE
:101DF00031F0893031F080E005C081E003C082E03D
:101E000001C083E08093D30181118093020185E1B9
:101E100093E00E943A1180910201813021F48EE01A
:101E200093E00E943A1180910201823021F487E010
:101E300093E00E943A1180910201833021F480E006
:101E400093E00E943A118EEF92E00E943A1144C052
:101E50008091D301882329F090E090930101809331
:101E6000000186EF92E00E943A118091000190916A
:101E700001010E947A1184EF92E0E7CF0E944A0E9E
:101E80002BC082EB92E00E945511C0E0D0E06FEFD2
:101E9000CE010E94F5292196C732D105C1F78CE702
:101EA00092E00E94551168E873E180E090E00E94A2
:101EB000371502C00E946A0D0C9400000DC086EC1C
:101EC00092E00E943A1160E070E080EC9FE30E9493
:101ED0002B1102C00E94631184EC92E00E94551104
:101EE0001092D30180E001C081E0DF91CF9108958D
:101EF0000895FC0190810180F281E02D892F809569
:101F000060FF12C0F8942281822382838181892B11
:101F10008183A3E2B0E01197F1F78281982B92833D
:101F2000789487ED90E011C0F89422818223828317
:101F30008181892B8183AFEFB0E01197F1F7828126
:101F4000982B928378948FE090E00197F1F70895B1
:101F5000833081F028F4813099F08230A1F0089527
:101F60008730A9F08830B9F08430D1F480918000B6
:101F70008F7D03C0809180008F77809380000895CB
:101F800084B58F7702C084B58F7D84BD089580911C
:101F9000B0008F7703C08091B0008F7D8093B00038
:101FA0000895682F8FE194E00C945E040F931F93C3
:101FB0000E94961560932704709328048093290447
:101FC00090932A048FE194E00E94180497FF1FC0A9
:101FD0000E9496150091270410912804209129044D
:101FE00030912A04DC01CB01801B910BA20BB30BB7
:101FF000009123041091240420912504309126049B
:1020000080179107A207B307E8F28FEF9FEF1F91A8
:102010000F910895009769F0FC0101900020E9F705
:102020003197AF01481B590BBC018FE194E00C9430
:10203000C70380E090E008958F929F92AF92BF9285
:102040000F931F93CF93DF93CDB7DEB7A1970FB652
:10205000F894DEBF0FBECDBF19A2423008F44AE0AB
:102060008E010F5D1F4F842E912CA12CB12CA50148
:1020700094010E94542AE62FB901CA0101501109A6
:10208000EA3014F4E05D01C0E95CD801EC93232B45
:10209000242B252B61F7C8010E940A10A1960FB6C8
:1020A000F894DEBF0FBECDBFDF91CF911F910F918E
:1020B000BF90AF909F908F9008958F929F92AF9214
:1020C000BF92CF92DF92EF92FF920F931F93CF9325
:1020D000DF936B017C01142F9B01AC010E94B32C98
:1020E000882319F08FE991E027C046015701E89451
:1020F000B7F82FEF3FEF4FE75FE7C501B4010E944C
:10210000B32C81110DC02FEF3FEF4FE75FE7C50103
:10211000B4010E94C92818161CF483EA91E00CC08F
:102120002FEF3FEF4FE75FE4C701B6010E94602C3D
:10213000181684F487EA91E0DF91CF911F910F91F7
:10214000FF90EF90DF90CF90BF90AF909F908F90D7
:102150000C940A102FEF3FEF4FE75FECC701B60179
:102160000E94C92887FDE6CF20E030E0A901C70121
:10217000B6010E94C92887FF09C08DE20E94D10FD5
:10218000EC01F7FAF094F7F8F09402C0C0E0D0E068
:1021900000E060E070E080E09FE3101741F020E095
:1021A00030E040E251E40E94252B0F5FF6CFA701FB
:1021B00096010E94B42A6B017C010E949E2B4B0168
:1021C0005C014AE00E941C10C80FD91F1123A9F11D
:1021D000C501B4010E94CE289B01AC01C701B60124
:1021E0000E94B32A6B017C018EE20E94D10FC80FBE
:1021F000D91F20E030E040E251E4C701B6010E945F
:102200002F294B015C010E949E2B6B01E12CF12CCC
:102210004AE0C701B6010E941C10C80FD91FC701B0
:10222000B6010E94CE289B01AC01C501B4010E94F9
:10223000B32A6B017C011150E1F6CE01DF91CF9101
:102240001F910F91FF90EF90DF90CF90BF90AF90D4
:102250009F908F900895CF93DF9342E00E945D108E
:10226000EC0180E991E00E940A108C0F9D1FDF9124
:10227000CF9108950F931F93CF93DF938C01C0E00C
:10228000D0E0F801EC0FFD1F6491662341F08FE16F
:1022900094E00E945E04892B11F02196F2CFCE01CA
:1022A000DF91CF911F910F910895CF93DF930E94FB
:1022B0003A11EC0180E991E00E940A108C0F9D1FF9
:1022C000DF91CF9108951F93CF93DF93C0EAD3E0BE
:1022D000FE011491112351F01A3019F48DE00E947F
:1022E000D10F812F0E94D10F2196F2CFDF91CF9194
:1022F0001F910895CF92DF92EF92FF92CF93DF93D9
:102300006C01990FEE08FF08F7FE17C08DE20E94DE
:10231000D10FEC0166277727CB016C197D098E0957
:102320009F094AE00E941C108C0F9D1FDF91CF91E6
:10233000FF90EF90DF90CF9008954AE0C701B6017B
:10234000DF91CF91FF90EF90DF90CF900C941C1015
:102350000F931F930E94961560932704709328048F
:102360008093290490932A048FE194E00E9404044E
:1023700097FF1FC00E949615009127041091280412
:102380002091290430912A04DC01CB01801B910BA0
:10239000A20BB30B00912304109124042091250477
:1023A0003091260480179107A207B307E8F28FEF58
:1023B0009FEF1F910F9108958230C8F4E82FF0E04D
:1023C000EE0FFF1FE059FE4F29ED34E031832083EB
:1023D000813039F080916900836080936900E89AC8
:1023E0000895809169008C6080936900E99A08954E
:1023F0008F929F92AF92BF92CF92DF92EF92FF9215
:10240000CF93DF930E94D60FFC0197FD0EC08D3253
:10241000910579F0C0970A9760F0EE32F10549F026
:102420008FE194E00E940404EDCF60E070E0CB0106
:102430006CC0812C912C80E8A82E8FE3B82EC12C83
:10244000D12C7601C0E0D0E0E130F10569F1ED3248
:10245000F10539F1EE32F10531F1CF01C0970A975C
:1024600018F5AAE0B0E0A70196010E94032A6F01C7
:10247000FF0FEE08FF08C60ED71EE81EF91E80E308
:10248000C81AD108E108F108CC2371F02DEC3CEC1E
:102490004CEC5DE3C501B4010E942F294B015C01A6
:1024A00003C0D1E001C0C1E08FE194E00E940404C8
:1024B0000E94D60FFC01C0970A9730F2EE32F10568
:1024C00019F4C1111FC0C0CFE130F10509F4BCCF30
:1024D000DD2341F0F094E094D094C094C11CD11C51
:1024E000E11CF11CCC2349F0C701B6010E94D028A1
:1024F000A50194010E942F2908C0C701B6010E94BE
:10250000D02803C0D111E6CFEFCFDF91CF91FF905C
:10251000EF90DF90CF90BF90AF909F908F900895F5
:10252000DC0180E0615098F02D91982F9227E92FDF
:10253000EF70F0E0E25BFC4F249192959F70E92FE1
:10254000F0E0E25AFC4FE491822F8E27EBCF089502
:10255000DF92EF92FF920F931F93CF93DF93EC01E3
:10256000D62EE42E08E010E0FF24F39461E08D2DD8
:102570008F2109F460E0CE010E94790FFF0C015019
:102580001109A1F7E11010C0F894E981FA81918155
:102590008881809589238183E981FA81928188816C
:1025A0008095892382837894DF91CF911F910F9139
:1025B000FF90EF90DF900895EF92FF920F931F939B
:1025C000CF93DF938C017B0140E065E50E94A81268
:1025D000E70188E0E80EF11C699140E0C8010E9423
:1025E000A812CE15DF05C1F7DF91CF911F910F9192
:1025F000FF90EF900895FC0190810180F281E02D21
:10260000F8948181892B81832281892F80952823C9
:102610002283A7E0B0E01197F1F721818223818323
:10262000A3E2B0E01197F1F780817894EFECF0E04D
:102630003197F1F7982381E009F480E00895DC01F7
:102640002C911196ED91FC911297F8948181922F23
:1026500090958923818378948DE743E050E0815001
:1026600021F1DA011197F1F730813223C1F3F894A7
:102670008281892382838181822B81837894ABE755
:10268000B7E01197F1F7F89481819823918383E162
:1026900091E00197F1F78081282381E009F080E043
:1026A0007894E3E6F6E03197F1F70895BF92CF9280
:1026B000DF92EF92FF920F931F93CF93DF93EC0182
:1026C0006B018D85811105C0CE010E941F13811100
:1026D00005C01B861D861C8680E060C040E060EF60
:1026E000CE010E94A81201E0E12CB12C11E0CE0134
:1026F0000E94FB12F82ECE010E94FB1291E0F9120B
:1027000003C08130B1F434C02E2D30E0F8121BC06C
:102710008B85181738F4FE01E20FF31F83818023A5
:1027200041F402C0811729F0F12C193058F41C87AC
:1027300009C0FE01EE0DF11D8381802B8383FF24F0
:10274000F39409C0B12EFE01E20FF31F9381802F95
:102750008095892383836F2DCE010E94790F1F5F9F
:10276000000F11F4E39401E087E08E1508F0BFCF6D
:10277000113408F4AECFBB86B11002C081E08D8762
:102780008B81882309F4A5CFDE011396F6012B96E1
:102790008D918193CA17DB07D9F781E0DF91CF9143
:1027A0001F910F91FF90EF90DF90CF90BF90089511
:1027B0006F927F928F929F92AF92BF92CF92DF9251
:1027C000EF92FF920F931F93CF93DF93CDB7DEB7B6
:1027D00029970FB6F894DEBF0FBECDBF8C01809154
:1027E000C1049091C2040E941F13882309F451C0B0
:1027F000B8018091C1049091C2040E94DC1240E0B3
:102800006EEB8091C1049091C2040E94A8128E01C7
:102810000F5F1F4F5E018AE0A80EB11C3801809047
:10282000C1049090C20488E0C82ED12CF12CEE2473
:10283000E394C4010E94FB128111FE28EE0CE1E03A
:10284000CE1AD108B1F7F801F1928F01EA15FB0514
:1028500031F78091C1049091C2040E941F1381300E
:10286000C1F468E0C3010E9490129985891311C0D8
:102870008D818F3361F020F48F3159F489E00CC0E1
:102880008F3519F08F3739F004C08BE005C08AE02E
:1028900003C080E001C08CE029960FB6F894DEBF3B
:1028A0000FBECDBFDF91CF911F910F91FF90EF90A1
:1028B000DF90CF90BF90AF909F908F907F906F9060
:1028C0000895CF93DF93282F30E0F901E65CFC4FA9
:1028D0008491F901E457FC4FD491F901E858FC4F79
:1028E000C491CC2391F081110E94A80FEC2FF0E04D
:1028F000EE0FFF1FE259FC4FA591B491EC91ED232F
:1029000081E090E021F480E002C080E090E0DF917F
:10291000CF9108951F93CF93DF93282F30E0F901D3
:10292000E65CFC4F8491F901E457FC4FD491F90126
:10293000E858FC4FC491CC23C1F0162F81110E949E
:10294000A80FEC2FF0E0EE0FFF1FE05DFC4FA5910C
:10295000B4919FB7F894111104C08C91D095D823ED
:1029600002C0EC91DE2BDC939FBFDF91CF911F91D2
:102970000895CF93DF9390E0FC01E457FC4F24913E
:10298000FC01E858FC4F8491882361F190E0880FA6
:10299000991FFC01EA5DFC4FC591D491FC01E05DFB
:1029A000FC4FA591B491611109C09FB7F89488813B
:1029B000209582238883EC912E230BC0623061F432
:1029C0009FB7F8948881322F309583238883EC91C8
:1029D0002E2B2C939FBF06C08FB7F894E8812E2B27
:1029E00028838FBFDF91CF910895CF93C82F60E0E8
:1029F0000E94B9148C2F90E0FC01E457FC4FE49145
:102A0000E093CF04FC01E858FC4FE491F0E0EE0FB6
:102A1000FF1FE259FC4F859194919093D1048093CC
:102A2000D0041092DA041092DC041092DB04EAED78
:102A3000F4E0129284E0E23DF807D9F7CF910895CF
:102A40008E3008F08E508770806480937C00809177
:102A50007A00806480937A0080917A0086FDFCCFB2
:102A6000809178002091790090E0922B08958F92C8
:102A70009F92AF92BF92CF92DF92EF92FF926B0143
:102A80007C010E9471154B015C01C114D104E10469
:102A9000F104F1F00E947115DC01CB01881999094C
:102AA000AA09BB09883E9340A105B10570F321E056
:102AB000C21AD108E108F10888EE880E83E0981E5A
:102AC000A11CB11CC114D104E104F10419F7DDCF3C
:102AD000FF90EF90DF90CF90BF90AF909F908F903E
:102AE00008953FB7F8948091E6049091E704A0918F
:102AF000E804B091E90426B5A89B05C02F3F19F062
:102B00000196A11DB11D3FBFBA2FA92F982F88276D
:102B1000820F911DA11DB11DBC01CD0142E0660FC8
:102B2000771F881F991F4A95D1F708952FB7F894FA
:102B30006091E2047091E3048091E4049091E504D3
:102B40002FBF08951F920F920FB60F9211242F934B
:102B50003F938F939F93AF93BF938091E2049091A3
:102B6000E304A091E404B091E5043091E10423E092
:102B7000230F2D3720F40196A11DB11D05C026E8B5
:102B8000230F0296A11DB11D2093E1048093E2045E
:102B90009093E304A093E404B093E5048091E604E9
:102BA0009091E704A091E804B091E9040196A11D79
:102BB000B11D8093E6049093E704A093E804B093DA
:102BC000E904BF91AF919F918F913F912F910F9009
:102BD0000FBE0F901F901895CF93DF93CDB7DEB740
:102BE000C750D1400FB6F894DEBF0FBECDBF78946A
:102BF00084B5826084BD84B5816084BD85B5826002
:102C000085BD85B5816085BD80916E0081608093B2
:102C10006E0010928100809181008260809381001B
:102C2000809181008160809381008091800081602B
:102C3000809380008091B10084608093B100809186
:102C4000B00081608093B00080917A0084608093AE
:102C50007A0080917A00826080937A0080917A0075
:102C6000816080937A0080917A00806880937A00F6
:102C70001092C10099E288E10FB6F894A89580936C
:102C800060000FBE9093600061E086E00E94B9147E
:102C900061E086E00E948A1461E083E10E94B91439
:102CA00061E083E10E948A1462E088E00E94B91426
:102CB00062E089E00E94B914E0912F04F0913004A1
:102CC00082E08083E0912B04F0912C041082E0914B
:102CD0002D04F0912E0480E1808310923704E0915E
:102CE0003304F091340486E08083E0913104F09164
:102CF0003204808180618083E0913104F09132045C
:102D0000808188608083E0913104F0913204808179
:102D100080688083E0913104F091320480818F7D5E
:102D2000808388E00E946114892B29F48091260118
:102D30008F5F809326018AE891E00E94551100E0A0
:102D400010E0E12CF12CC8010E94ED298F3F09F021
:102D5000F394B7E2CB2EFC1002C0EE24E3940F5F95
:102D60001F4F0732110579F7EE2009F47CC186E187
:102D700091E00E943A1100E010E0ACEAEA2EA1E0F6
:102D8000FA2EC8010E94ED29D7018D937D010F5FB6
:102D90001F4F07321105A9F73090AC01332009F419
:102DA0005FC10091AD01002309F45AC11091AE0139
:102DB000112309F455C1C090AF01D090B001E0904B
:102DC000B101F090B201C254DF4FC882D982EA82C9
:102DD000FB82CE5BD04020E030E0A901C701B60104
:102DE0000E94C928882309F43BC1C090B301D09048
:102DF000B401E090B501F090B601CE53DF4FC88228
:102E0000D982EA82FB82C25CD04020E030E0A90196
:102E1000C701B6010E94C928882309F421C1C090C6
:102E2000B701D090B801E090B901F090BA01CA534F
:102E3000DF4FC882D982EA82FB82C65CD04020E0A4
:102E400030E0A901C701B6010E94C928882309F40E
:102E500007C1C090BB01D090BC01E090BD01F090D3
:102E6000BE01C653DF4FC882D982EA82FB82CA5CA8
:102E7000D04020E030E0A901C701B6010E94C92876
:102E8000882309F4EDC0C090BF01D090C001E0904C
:102E9000C101F090C201C253DF4FC882D982EA82D9
:102EA000FB82CE5CD04020E030E0A901C701B60132
:102EB0000E94C928882309F4D3C0C090C301D090D0
:102EC000C401E090C501F090C601CE52DF4FC88228
:102ED000D982EA82FB82C25DD04020E030E0A901C5
:102EE000C701B6010E94C928882309F4B9C04090DF
:102EF000C7015090C8016090C9017090CA0120E0DC
:102F000030E0A901C301B2010E94C928882309F455
:102F1000A7C08090CB019090CC01A090CD01B09043
:102F2000CE0120E030E0A901C501B4010E94C9280A
:102F3000882309F495C0C090CF01D090D001E090D3
:102F4000D101F090D20120E030E0A901C701B60123
:102F50000E94C928882309F483C030922601009377
:102F60000201812F90E09093010180930001C254EF
:102F7000DF4F88819981AA81BB81CE5BD04080934D
:102F80004B0190934C01A0934D01B0934E01CE5351
:102F9000DF4F88819981AA81BB81C25CD040809338
:102FA000470190934801A0934901B0934A01CA5345
:102FB000DF4F88819981AA81BB81C65CD040809314
:102FC000430190934401A0934501B0934601C65339
:102FD000DF4F88819981AA81BB81CA5CD0408093F0
:102FE0003F0190934001A0934101B0934201C2532D
:102FF000DF4F88819981AA81BB81CE5CD0408093CC
:103000003B0190933C01A0933D01B0933E01CE5211
:10301000DF4F88819981AA81BB81C25DD0408093B6
:10302000370190933801A0933901B0933A0140924F
:1030300033015092340160923501709236018092D2
:103040002F0190923001A0923101B0923201C092D2
:103050002B01D0922C01E0922D01F0922E0107C09D
:1030600083EE90E002C084EB90E00E9455110E9434
:103070004A0E87E491E00E945511A8950E9496158A
:103080006B017C01A8E8CA0EA3E1DA1EE11CF11C69
:103090000E9496156C157D058E059F0508F095C05C
:1030A0008FE194E00E942604892B09F486C01A82DD
:1030B00019821C821B821E821D8260E070E0CE019C
:1030C00001960E94380529813A8181110DC0211590
:1030D000310519F0C9010E94A02D1A8219821E82A1
:1030E0001D821C821B8207C01E821D8262E971E064
:1030F000C9010E94062F0E94A8110D811E8197FD13
:1031000019C089A71AA60F5F1F4FB801CE010196FB
:103110000E943805882379F329813A818D819E8127
:10312000BE01675D7F4F820F931F0E94062F1E8393
:103130000D83E1CFA980BA80012B41F06DE871E0E9
:10314000C5010E94FD2E11E0892B09F010E0C50198
:103150000E94A02D112389F18FE291E00E94551168
:103160000E94631186E70E94CC0E182F111125C012
:103170008FE194E00E942604892BB9F08FE194E05E
:103180000E94040490ED980F9A3060F49091D3015E
:10319000990F292F220F220F920F9053890F80939E
:1031A000D30103C00E94CC0E182F64E670E080E0CB
:1031B00090E00E943715A895D9CF64E670E080E0D2
:1031C00090E00E943715A89563CF89E00E946114B2
:1031D000892B69F481E08093E60288E791E00E9400
:1031E0003A1160E070E082E093E40E942B1181E0EC
:1031F0000E942015181619064CF481E080933203C2
:103200008091E5028F5F8093E50202C01092320345
:1032100082E00E942015181619064CF481E0809374
:1032200031038091E5028F5F8093E50202C0109226
:10323000310383E00E942015181619064CF481E032
:10324000809330038091E5028F5F8093E50202C096
:103250001092300384E00E942015181619064CF4D1
:1032600081E080932F038091E5028F5F8093E502D8
:1032700002C010922F038091E502811103C081E00A
:103280008093320360E086E00E948A1480914B01B3
:1032900090914C01A0914D01B0914E0110920A0104
:1032A0008093680190936901A0936A01B0936B01C8
:1032B000F090E602FF2061F080E090E0A2E0B3E44D
:1032C0008093680190936901A0936A01B0936B01A8
:1032D00080913203882399F00091430110914401B9
:1032E000209145013091460140914701509148019C
:1032F0006091490170914A0181E00E94330D8091F3
:103300003103882399F000913B0110913C012091F9
:103310003D0130913E0140913F015091400160914B
:1033200041017091420182E00E94330D809130038F
:10333000882399F0009133011091340120913501D7
:103340003091360140913701509138016091390137
:1033500070913A0183E00E94330D80912F038823FE
:1033600099F000912B0110912C0120912D013091A9
:103370002E0140912F0150913001609131017091E7
:10338000320184E00E94330D83E393E3A3E5B0E4CC
:103390008093270190932801A0932901B0932A01DB
:1033A000FF2021F08CE390E00E94CE0B80E090E0C3
:1033B000A0E2B1E48093500190935101A093520197
:1033C000B0935301E0902401F0902501B7010F2C38
:1033D000000C880B990B0E94D02820E030E040E2DE
:1033E00051E40E942F290E94972B4B015C0170939E
:1033F000E3016093E20180910801807790E0E5E0CD
:1034000095958795EA95E1F723E030E0281B390B85
:1034100080EF92E08C0102C0159507952A95E2F79E
:103420009801D7010E949B2A28E13CEF4FEF5FEF04
:103430000E94762AB1E08B1A9108280D391D30932D
:10344000D9012093D801C801110FAA0BBB0B40E191
:1034500057E260E070E09A01AB01281B390B4A0B80
:103460005B0BA8EEB3E00E94032A68587341810900
:10347000910928E630E040E050E00E94542A209371
:10348000D4013093D5014093D6015093D70111E078
:103490001093010310930203F3E0FF2EF0926D01ED
:1034A00010936C0110920301109204011092050117
:1034B0001092060185E08093740183E180934F01AF
:1034C00061E00E94B91461E083E10E948A140FE573
:1034D000009308018DEC92E09093E8028093E7025C
:1034E0001092CD0289E293E09093EA028093E90280
:1034F000F0920701809174010E94F5141093EC0280
:1035000019A61AA60BA780E395E790932A03809348
:10351000290390932C0380932B0390932E03809385
:103520002D03E091C104F091C20413861586148620
:10353000DF011B9633961E92AE17BF07E1F710927C
:10354000C00401E0BE016F5F7F4F8091C104909184
:10355000C2040E945613882309F454C067E0CE01C8
:1035600001960E94901298858913ECCF8091BC043B
:10357000811127C08091C1049091C2040E941F1341
:10358000BE016F5F7F4F8091C1049091C2040E9481
:10359000DC1240E064EB8091C1049091C2040E946F
:1035A000A8128091C1049091C2040E94FB12182FAE
:1035B0008091C1049091C2040E941F13112309F449
:1035C00041C01091BD048981803111F40C9475289B
:1035D000CE0101960E94D813811718F48091BD0482
:1035E00009C08981803111F48CE004C0CE010196BC
:1035F0000E94D8138093BD048091C0048F5F809394
:10360000C004A0CF8091C0048093EB02843018F0F6
:1036100083E08093EB028091CD028832B1F010E01C
:103620008091EB02181788F4E8E01E9FB001112486
:1036300063537D4F8FEC94E00E945613882329F04A
:103640001F5FEECF0093BC04BCCF8FEC94E00E94D0
:103650001F1340E06CEC8FEC94E00E94A81240E055
:103660006EE48FEC94E00E94A8128E01075D1F4F5C
:103670007E01ACE2EA0EF11CD8016D918D0140E0B3
:103680008FEC94E00E94A8120E151F05A9F78FEC8D
:1036900094E00E941F1340E06CEC8FEC94E00E94D9
:1036A000A81241E068E48FEC94E00E94A81264E163
:1036B00070E080E090E00E943715E0902401F090E7
:1036C000250128E731E0D7010E94A32A28E13CEF39
:1036D0004FEF5FEF0E94762A8091E2019091E30123
:1036E0000197280F391F3093D9012093D8018AE41C
:1036F00099E6A1E0B0E08093D4019093D501A09326
:10370000D601B093D7018091E401882379F0282F66
:1037100030E030936F0120936E018F5F853030F47D
:10372000E82FF0E0EE54FD4F1082F7CF00916E01CC
:1037300010916F01B701FF0C880B990B0E94D028E4
:10374000C253DF4F688379838A839B83CE5CD040EA
:10375000C801019628E6289FB001299F700D112409
:10376000072E000C880B990B0E94D0282BED3FE010
:1037700049EC50E40E942F29C253DF4F2881398140
:103780004A815B81CE5CD0400E942F2920E034E248
:1037900044E759E40E94252B4B015C016091DF0452
:1037A0007091E00480E090E00E94CE28CE52DF4F7E
:1037B000688379838A839B83C25DD04023E333E3AC
:1037C00043E550E4609168017091690180916A015C
:1037D00090916B010E942F29CE52DF4F28813981B1
:1037E0004A815B81C25DD0400E94252B60936801B5
:1037F0007093690180936A0190936B01E0E1F1E0BD
:10380000CA53DF4FF983E883C65CD0404BE051E0F8
:10381000C254DF4F59834883CE5BD0408DE093E0A4
:10382000C652DF4F99838883CA5DD040ADEEB2E0C7
:10383000C852DF4FB983A883C85DD040EAEFF1E0FA
:10384000CE53DF4FF983E883C25CD04046EE51E0AF
:10385000C252DF4F59834883CE5DD04084E591E06A
:10386000C653DF4F99838883CA5CD040CA52DF4F6A
:1038700099838883C65DD040212C312C20163106D7
:103880000CF0EAC0CA52DF4FE881F981C65DD04032
:103890006191719181919191CA52DF4FF983E883CF
:1038A000C65DD04023E333E343E550E40E942F2973
:1038B000CE52DF4F288139814A815B81C25DD04081
:1038C0000E94252BC653DF4FA881B981CA5CD04026
:1038D0006D937D938D939D93C653DF4FB983A883DA
:1038E000CA5CD040CA53DF4FE881F981C65CD04042
:1038F0004190519061907190CA53DF4FF983E883F2
:10390000C65CD040FFEF2F1A3F0AC254DF4FA88198
:10391000B981CE5BD0406D91C254DF4FB983A8838B
:10392000CE5BD04070E080E090E00E94D02820E0A4
:1039300030E040ED52E40E942F29C253DF4F28812E
:1039400039814A815B81CE5CD0400E942F2920E0E2
:1039500034E244E759E40E94252B6B017C0120E00E
:1039600030E044EB53E4C301B2010E94252B9B01DC
:10397000AC01C701B6010E94B42A2BED3FE049EC2F
:1039800050E40E942F292B013C010E94652C6B0101
:103990007C01C501B4010E94652C9B01AC01C701EB
:1039A000B6010E94252B6B017C01C252DF4FE881DA
:1039B000F981CE5DD0406193719381939193C2520E
:1039C000DF4FF983E883CE5DD040C301B2010E948E
:1039D000202B2B013C01C501B4010E94202B9B012F
:1039E000AC01C701B6010E942F299B01AC01C301A4
:1039F000B2010E94B32ACE53DF4FA881B981C25CC5
:103A0000D0406D937D938D939D93CE53DF4FB983BB
:103A1000A883C25CD040C852DF4FE881F981C85DFD
:103A2000D0401192119211921192C852DF4FF98336
:103A3000E883C85DD040C652DF4FA881B981CA5D16
:103A4000D0401D921D921D921D92C652DF4FB98328
:103A5000A883CA5DD04012CF81E080930901109203
:103A6000DA011092DB011092DC011092DD0187E097
:103A700080937A0080917A00806880937A008091A8
:103A80007A00806280937A0080917A0088608093C7
:103A90007A0080917A00806480937A007894C09054
:103AA0005001D0905101E0905201F090530160918B
:103AB000240170912501072E000C880B990B0E94A0
:103AC000D028A70196010E942F290E94972B70935E
:103AD000E3016093E2011092CB0220E034E244E77C
:103AE00059E4C701B6010E942F2920E030E040EDE3
:103AF00052E40E94252B0E949E2B6093DE0170935E
:103B0000DF018093E0019093E1018091010388231C
:103B100049F062E080916D010E94B91480916C01BE
:103B20000E94DC111092330310923403109235037B
:103B3000109236038FE194E00E942604892B09F449
:103B4000EFC08FE194E00E9418048B3619F154F411
:103B5000863609F0DAC00E94F8110E94972B6B019B
:103B60007C0109C08C3609F4CEC0833709F0CDC082
:103B70000E946A0DCAC08FE194E00E942604892B3E
:103B800029F08FE194E00E940404F5CFC6010E9461
:103B9000CE0BBBC00E94F8110E94972B8B010E9494
:103BA000F8116B017C010E94F8114B015C018FE15F
:103BB00094E00E942604892B29F08FE194E00E9472
:103BC0000404F5CF0230110509F46DC0FCF40115B1
:103BD0001105E1F10130110509F097C0950184014B
:103BE000B701A60181E00E941F0CC0924701D0924C
:103BF0004801E0924901F0924A018092430190927B
:103C00004401A0924501B09246017FC003301105E6
:103C100009F461C00430110509F077C095018401F1
:103C2000B701A60184E00E941F0CC0922F01D09220
:103C30003001E0923101F092320180922B0190929A
:103C40002C01A0922D01B0922E015FC0209127017E
:103C5000309128014091290150912A01C701B601F4
:103C60000E942F294B015C016091DF047091E004F8
:103C700080E090E00E94CE289B01AC01C501B40118
:103C80000E94252B609368017093690180936A01FB
:103C900090936B01C0924B01D0924C01E0924D0188
:103CA000F0924E0132C095018401B701A60182E075
:103CB0000E941F0CC0923F01D0924001E09241014E
:103CC000F092420180923B0190923C01A0923D0112
:103CD000B0923E011AC095018401B701A60183E0AC
:103CE0000E941F0CC0923701D0923801E092390136
:103CF000F0923A018092330190923401A092350102
:103D0000B092360102C00E944A0E8FE194E00E94F8
:103D10002604892B29F08FE194E00E940404F5CF5A
:103D20008091CC02882311F11092CC028091EC0298
:103D30008823E1F010914F0117FD08C061E0812F49
:103D40000E94B91461E0812F0E948A148FEC94E0E4
:103D50000E941F1340E06CEC8FEC94E00E94A812CC
:103D600041E064E48FEC94E00E94A8128091CB02C1
:103D7000882311F40C9434281092CB02F89480918B
:103D8000C7029091C802A091C902B091CA02C6545C
:103D9000DF4F88839983AA83BB83CA5BD04070912D
:103DA000BF026091C0025091C1024091C2023091A5
:103DB000C3022091C4029091C5028091C602CE54E4
:103DC000DF4F7883C25BD040CD54DF4F6883C35B45
:103DD000D040CC54DF4F5883C45BD040CB54DF4F2E
:103DE0004883C55BD040CA54DF4F3883C65BD040A0
:103DF000C954DF4F2883C75BD040C854DF4F988336
:103E0000C85BD040C754DF4F8883C95BD0407091F6
:103E1000B7026091B8025091B9024091BA02309154
:103E2000BB022091BC029091BD028091BE02C6559A
:103E3000DF4F7883CA5AD040C555DF4F6883CB5ACD
:103E4000D040C455DF4F5883CC5AD040C355DF4FC4
:103E50004883CD5AD040C255DF4F3883CE5AD04028
:103E6000C155DF4F2883CF5AD040C055DF4F9883CC
:103E7000C05BD040CF54DF4F8883C15BD0402091DE
:103E80006E0130916F0180E090E0821793070CF093
:103E90001DC1FC01EE54FD4F40815C0173E0AA0C92
:103EA000BB1C7A95E1F7442309F4B3C0D501A657AA
:103EB000BD4FEC901196FC90119712960C911297B1
:103EC00013961C91139714967C91149715966C91E8
:103ED000159716965C91169717964C91A9E7B0E046
:103EE000AC0FBD1FAA0DBB1DEC921196FC92119751
:103EF00012960C93129713961C93139714967C9317
:103F0000149715966C93159716965C9316971796BB
:103F10004C93D501AE59BD4FEC901196FC90119782
:103F200012960C91129713961C91139714967C91EC
:103F3000149715966C91159716965C91169717968F
:103F40004C91A1E5B0E0AC0FBD1FAA0DBB1DEC92DA
:103F50001196FC92119712960C93129713961C933C
:103F6000139714967C93149715966C931597169641
:103F70005C93169717964C93D501A65CBD4FCC90D9
:103F80001196DC9011971296EC9012971396FC9074
:103F9000139714960C91149715961C9115971696D5
:103FA0007C91169717966C91A1E0B0E0AC0FBD1F05
:103FB000AA0DBB1DAD01485D5F4F9896CC929897B6
:103FC000FA01D182E282F3820483158376836783C8
:103FD000F501EE5EFD4FE080F18002811381748176
:103FE000658156814781EC921196FC921197129649
:103FF0000C93129713961C93139714967C93149713
:1040000015966C93159716965C93169717964C9386
:104010005BC0A9E7B0E0AC0FBD1FAA0DBB1D1C9291
:1040200011961C92119712961C92129713961C923D
:10403000139714961C92149715961C921597169622
:104040001C92169717961C92A1E5B0E0AC0FBD1F0D
:10405000AA0DBB1D1C9211961C92119712961C92D0
:10406000129713961C92139714961C9214971596F8
:104070001C92159716961C92169717961C92E1E0C3
:10408000F0E0EC0FFD1FEA0DFB1DDF01989610A676
:1040900011961C92119712961C92129713961C92CD
:1040A000139714961C92149715961C9215971696B2
:1040B0001C92169717961C921082118212821382FC
:1040C00014821582168217820196DFCE8091020338
:1040D000882311F180910103882351F062E08091DF
:1040E0006D010E94B91480916C010E94DC1112C014
:1040F000E0916C01E23070F4E13011F0E89801C019
:10410000E998F0E0EE0FFF1FE059FE4F86EC93E0D8
:10411000918380831092020380910E0290910F028E
:10412000A0911002B0911102892B8A2B8B2B21F1C7
:1041300080910E0290910F02A0911002B091110295
:104140004091250350912603609127037091280325
:10415000840F951FA61FB71F8093250390932603F6
:10416000A0932703B093280310920E0210920F021F
:1041700010921002109211027894CE54DF4F2881D1
:10418000C25BD040CD54DF4F3881C35BD040CC54AC
:10419000DF4F4881C45BD040CB54DF4F5881C55BB3
:1041A000D040CA54DF4F6881C65BD040C954DF4F4E
:1041B0007881C75BD040C854DF4F8881C85BD0404E
:1041C000C754DF4F9881C95BD040C654DF4F488049
:1041D00059806A807B80CA5BD040C655DF4F18810A
:1041E000CA5AD040C555DF4F0881CB5AD040C4557C
:1041F000DF4F3880CC5AD040C355DF4F2880CD5A8E
:10420000D040C255DF4FC880CE5AD040CE53DF4F8A
:10421000C882C25CD040C155DF4FD880CF5AD04051
:10422000CA53DF4FD882C65CD040C055DF4FE8800C
:10423000C05BD040C653DF4FE882CA5CD040CF5449
:10424000DF4FF880C15BD040C253DF4FF882CE5CB5
:10425000D040C655DF4FC880CA5AD040CE52DF4F3B
:10426000C882C25DD040C555DF4FD880CB5AD04000
:10427000CA52DF4FD882C65DD040C455DF4FE880B8
:10428000CC5AD040C852DF4FE882C85DD040C355F9
:10429000DF4FF880CD5AD040C652DF4FF882CA5D5A
:1042A000D040C255DF4FC880CE5AD040C252DF4FF7
:1042B000C882CE5DD040C155DF4FD880CF5AD040A4
:1042C000CE51DF4FD882C25ED040C055DF4FE8806C
:1042D000C05BD040CA51DF4FE882C65ED040CF54A9
:1042E000DF4FF880C15BD040C651DF4FF882CA5E15
:1042F000D040C654DF4FC880D980EA80FB80CA5BBB
:10430000D040C254DF4FC882D982EA82FB82CE5BA2
:10431000D040C654DF4F88809980AA80BB80CA5B9A
:10432000D0400E94D32B6B017C01C301B2010E94DB
:10433000D0289B01AC01C701B6010E94252B6B015F
:104340007C01212F302F432D522DCE53DF4F68811A
:10435000C25CD040CA53DF4F7881C65CD040C653A0
:10436000DF4F8881CA5CD040C253DF4F9881CE5C5A
:10437000D0400E94CD2B2B013C01CE52DF4F288133
:10438000C25DD040CA52DF4F3881C65DD040C852AE
:10439000DF4F4881C85DD040C652DF4F5881CA5DAB
:1043A000D040C252DF4F6881CE5DD040CE51DF4F4A
:1043B0007881C25ED040CA51DF4F8881C65ED0404E
:1043C000C651DF4F9881CA5ED0400E94CD2B9B0121
:1043D000AC01C301B2010E942F292B013C01C25440
:1043E000DF4F688179818A819B81CE5BD0400E94BA
:1043F000D0289B01AC01C301B2010E94252B2B01E7
:104400003C01C501B4010E94D0289B01AC01C3014D
:10441000B2010E94252B9B01AC01C701B6010E948D
:10442000B32A0E94732C40906801509069016090FB
:104430006A0170906B01A30192010E942F29609381
:104440002103709322038093230390932403E0902D
:104450006E01F0906F01C852DF4FF982E882C85DAB
:10446000D040C0905001D0905101E0905201F090A6
:104470005301C651DF4FC882D982EA82FB82CA5EED
:10448000D04043E053E0C253DF4F59834883CE5CB2
:10449000D0408DEE92E0CE53DF4F99838883C25C8B
:1044A000D040ADE0B3E0C254DF4FB983A883CE5B08
:1044B000D040CA53DF4F99838883C65CD04044E51F
:1044C00051E0CE52DF4F59834883C25DD04086EE23
:1044D00091E0C653DF4F99838883CA5CD040AAEF2E
:1044E000B1E0CA52DF4FB983A883C65DD040212C0A
:1044F000312CC852DF4FC880D980C85DD0402C1401
:104500003D040CF0F4C2810153E0000F111F5A95D5
:10451000E1F7E9E7F0E0EC0FFD1FE00FF11F20816C
:1045200031814281538164817581D680CA5FDE4FBB
:10453000D882C650D140E780C95FDE4FE882C750BD
:10454000D140CA52DF4FA881B981C65DD0408D905D
:104550009D90AD90BD90CA52DF4FB983A883C65DD0
:10456000D040E1E5F0E0EC0FFD1FE00FF11FC0804F
:10457000C251DF4FC882CE5ED040D180C151DF4FE3
:10458000D882CF5ED040E280C051DF4FE882C05F6A
:10459000D040F380CF50DF4FF882C15FD040C4805D
:1045A000CE50DF4FC882C25FD040D580CD50DF4FA4
:1045B000D882C35FD040E680CC50DF4FE882C45F32
:1045C000D040F780CB50DF4FF882C55FD040C65354
:1045D000DF4FA881B981CA5CD040CD90DD90ED90CD
:1045E000FD90C653DF4FB983A883CA5CD040C65242
:1045F000DF4FC882D982EA82FB82CA5DD040C654AE
:10460000DF4FC880D980EA80FB80CA5BD040C655A6
:10461000DF4FB881CA5AD040CA50DF4FB883C65F57
:10462000D040C555DF4FE881CB5AD040C950DF4F4D
:10463000E883C75FD040C455DF4FF881CC5AD040E3
:10464000C850DF4FF883C85FD040C355DF4F888123
:10465000CD5AD040C750DF4F8883C95FD040C25584
:10466000DF4F9881CE5AD040C650DF4F9883CA5F43
:10467000D040C155DF4FA881CF5AD040C550DF4F41
:10468000A883CB5FD040C055DF4FB881C05BD0401E
:10469000C450DF4FB883CC5FD040CF54DF4FE881A8
:1046A000C15BD040C350DF4FE883CD5FD04081E095
:1046B00090E08C0F9D1F080F191FD801BC91C250AC
:1046C000DF4FB883CE5FD040F801F181C150DF4F9A
:1046D000F883CF5FD040D8011296BC91C050DF4F15
:1046E000B883C050D140F801F381CF5FDE4FF8832B
:1046F000C150D140D8011496BC91CE5FDE4FB88333
:10470000C250D140F801F581CD5FDE4FF883C35030
:10471000D140D8011696BC91CC5FDE4FB883C4500F
:10472000D140F801F781CB5FDE4FF883C550D1400F
:10473000C654DF4F88819981AA81BB81CA5BD04072
:10474000C252DF4F88839983AA83BB83CE5DD0405A
:10475000C654DF4F88819981AA81BB81CA5BD04052
:10476000CE51DF4F88839983AA83BB83C25ED0403A
:10477000CE52DF4FE881F981C25DD04081919191A5
:10478000A191B191CE52DF4FF983E883C25DD04051
:10479000CA51DF4F88839983AA83BB83C65ED0400A
:1047A000CA5FDE4F8881C650D140C95FDE4F988115
:1047B000C750D1400E94CD2BA50194010E942F2902
:1047C0004B015C01C251DF4F2881CE5ED040C15108
:1047D000DF4F3881CF5ED040C051DF4F4881C05F8E
:1047E000D040CF50DF4F5881C15FD040CE50DF4F17
:1047F0006881C25FD040CD50DF4F7881C35FD04029
:10480000CC50DF4F8881C45FD040CB50DF4F9881C0
:10481000C55FD0400E94CD2BC652DF4F2881398121
:104820004A815B81CA5DD0400E942F299B01AC0167
:10483000C501B4010E94B42A4B015C01C701B60155
:104840000E94D0289B01AC01C501B4010E94252B18
:104850006B017C01CA50DF4F2881C65FD040C95030
:10486000DF4F3881C75FD040C850DF4F4881C85FF5
:10487000D040C750DF4F5881C95FD040C650DF4F8E
:104880006881CA5FD040C550DF4F7881CB5FD04090
:10489000C450DF4F8881CC5FD040C350DF4F988138
:1048A000CD5FD0400E94CD2B4B015C01C250DF4F49
:1048B0002881CE5FD040C150DF4F3881CF5FD040DC
:1048C000C050DF4F4881C050D140CF5FDE4F58818C
:1048D000C150D140CE5FDE4F6881C250D140CD5F24
:1048E000DE4F7881C350D140CC5FDE4F8881C45009
:1048F000D140CB5FDE4F9881C550D1400E94CD2B77
:104900009B01AC01C501B4010E942F294B015C0140
:10491000C252DF4F688179818A819B81CE5DD04010
:104920000E94D0289B01AC01C501B4010E94252B37
:104930004B015C01CE51DF4F688179818A819B8177
:10494000C25ED0400E94D0289B01AC01C501B401D9
:104950000E94252B9B01AC01C701B6010E94B32A1E
:10496000A30192010E942F29CA51DF4F288139816A
:104970004A815B81C65ED0400E942F296B017C0179
:10498000F801B896D80198968C91818182818381B3
:104990008481858186818781C654DF4F8881998192
:1049A000AA81BB81CA5BD040F8018081818182816C
:1049B00083818481858186818781808181818281D3
:1049C00083818481858186818781C654DF4F888178
:1049D0009981AA81BB81CA5BD040C654DF4F8881D0
:1049E0009981AA81BB81CA5BD04020E030E040E0E1
:1049F0005FE3C701B6010E94B42A0E94972BC253FD
:104A0000DF4FA881B981CE5CD0406D937D93C253B6
:104A1000DF4FB983A883CE5CD040CA53DF4FE88113
:104A2000F981C65CD04081909190A190B190CA5319
:104A3000DF4FF983E883C65CD040C651DF4F288141
:104A400039814A815B81CA5ED040C701B6010E94AC
:104A50002F29A50194010E94B42A6B017C0120E05A
:104A600030E041E655E40E94252B0E94972B072E4B
:104A7000000C880B990BC254DF4FA881B981CE5B23
:104A8000D0400D911D912D913C911397060F171F4A
:104A9000281F391FFD010193119321933193C254B3
:104AA000DF4FF983E883CE5BD0400E94D02820E01E
:104AB00030E041E655E40E942F299B01AC01C7017B
:104AC000B6010E94B32ACE53DF4FA881B981C25CE0
:104AD000D0406D937D938D939D93CE53DF4FB983DB
:104AE000A883C25CD040BFEF2B1A3B0A02CD809155
:104AF000EC02882309F4CBC0712C46E0642E80912F
:104B0000EB02781608F0B5C02DEC3CEC4CE45EE30B
:104B10006091500170915101809152019091530127
:104B20000E94C928072D10E087FF0FC0000F111F3A
:104B3000E091E902F091EA02E00FF11F30ECC32EA0
:104B400036E7D32ED182C08292C08FEC94E00E94CF
:104B50001F1381110FC0000F111FE091E902F091A6
:104B6000EA02E00FF11F90ECE92E96E7F92EF182B0
:104B7000E0827DC040E065E58FEC94E00E94A812E1
:104B80006801B3E0CC0CDD1CBA95E1F7E12CF12C07
:104B9000E091E702F091E802EC0DFD1DEE0DFF1D26
:104BA00040E060818FEC94E00E94A8122FEFE21A9F
:104BB000F20A48E0E416F10459F740E06EEB8FEC9E
:104BC00094E00E94A8127E0151EAE50EF11C470113
:104BD00089E0880E911C6701A8E0AA2EB12C512C07
:104BE000442443948FEC94E00E94FB1281115428DA
:104BF000440C91E0A91AB108A9F7D7015D927D0193
:104C00008A169B0649F768E0C6010E949012F601D9
:104C1000908589131AC020813181629EC001639EF4
:104C2000900D11243595279535952795820F931F63
:104C3000803CF6E79F0759F09C0124583A4E2135F5
:104C4000364428F088EF95E702C080EC96E7000F25
:104C5000111FE091E902F091EA02E00FF11F918348
:104C6000808365E070E080E090E00E9437157394E7
:104C700046CF10914F0117FD08C061E0812F0E94BF
:104C8000B91460E0812F0E948A141092E50180918E
:104C9000330390913403A0913503B091360301960C
:104CA000A11DB11D8093330390933403A09335036A
:104CB000B093360380913203882309F4E0C18091D8
:104CC00003039091040390933A03809339038091F6
:104CD0000D0390910E03A0910F03B09110038093E8
:104CE000410390934203A0934303B093440381E0B4
:104CF00090E020913103222309F4D0C1FC01EE0F92
:104D0000FF1FED5FFC4F2081318130933C032093E6
:104D10003B03FC01EE0FFF1FEE0FFF1FE35FFC4F95
:104D200040815181628173814093450350934603D2
:104D30006093470370934803019620913003222328
:104D400009F4B9C1FC01EE0FFF1FED5FFC4F20819C
:104D5000318130933E0320933D03FC01EE0FFF1F92
:104D6000EE0FFF1FE35FFC4F408151816281738131
:104D70004093490350934A0360934B0370934C0351
:104D8000019620912F03222309F4A2C1FC01EE0F0A
:104D9000FF1FED5FFC4F2081318130934003209352
:104DA0003F03880F991F880F991FFC01E35FFC4F99
:104DB00080819181A281B38180934D0390934E03B2
:104DC000A0934F03B093500320E030E048EC52E44E
:104DD0006091210370912203809123039091240319
:104DE0000E942F290E94972B7093380360933703FA
:104DF0008091290390912A03909352038093510349
:104E000080912B0390912C03909354038093530330
:104E100080912D0390912E03909356038093550318
:104E20008091250390912603A0912703B091280338
:104E30008093570390935803A0935903B0935A0358
:104E400083EE91E00E943A11609133037091340334
:104E500080913503909136034AE00E941C108CED3E
:104E600091E00E943A116091370370913803072E48
:104E7000000C880B990B0E94D0282AE037ED43E202
:104E80005CE30E942F2942E00E945D108091320372
:104E9000882351F087ED91E00E943A118091390307
:104EA00090913A030E947A1180913103882351F046
:104EB00082ED91E00E943A1180913B0390913C0376
:104EC0000E947A1180913003882351F08DEC91E09B
:104ED0000E943A1180913D0390913E030E947A1105
:104EE00080912F03882351F088EC91E00E943A11C1
:104EF00080913F03909140030E947A118091320388
:104F0000882379F083EC91E00E943A11609141038B
:104F10007091420380914303909144034AE00E94C0
:104F20001C1080913103882379F08EEB91E00E9470
:104F30003A11609145037091460380914703909127
:104F400048034AE00E941C1080913003882379F0C6
:104F500089EB91E00E943A116091490370914A03F4
:104F600080914B0390914C034AE00E941C10809169
:104F70002F03882379F084EB91E00E943A1160912D
:104F80004D0370914E0380914F03909150034AE07E
:104F90000E941C100091510310915203003355E7F9
:104FA000150799F08FEA91E00E943A11B801110FAC
:104FB000880B990B0E94D0282AE037ED43E25CE38E
:104FC0000E942F2942E00E945D100091530310912E
:104FD0005403003385E7180799F08AEA91E00E94AC
:104FE0003A11B801110F880B990B0E94D0282AE0C2
:104FF00037ED43E25CE30E942F2942E00E945D10FE
:105000000091550310915603003395E7190799F065
:1050100085EA91E00E943A11B801110F880B990BB3
:105020000E94D0282AE037ED43E25CE30E942F295A
:1050300042E00E945D108DE991E00E943A1160917A
:105040005703709158038091590390915A034AE095
:105050000E941C1080E991E00E940A1064E170E057
:1050600080E090E00E943715A89564E170E080E050
:1050700090E00E9437150E94CD040C949A1D109266
:105080003A03109239031092410310924203109296
:1050900043031092440380E090E02BCE10923C0337
:1050A00010923B031092450310924603109247035F
:1050B0001092480342CE10923E0310923D0310928C
:1050C000490310924A0310924B0310924C0359CE9D
:1050D0001092400310923F0310924D0310924E0322
:1050E00010924F03109250036FCE1D3010F00C94AD
:1050F000EE1A0C94F41AEFE1F4E01382128288EEB7
:1051000093E0A0E0B0E084839583A683B7838FE724
:1051100091E09183808385EC90E09587848784EC8F
:1051200090E09787868780EC90E0918B808B81EC74
:1051300090E0938B828B82EC90E0958B848B86EC55
:1051400090E0978B868B118E128E138E148E80E0DA
:1051500094E09093E0048093DF0480E290E09093E9
:10516000DE048093DD04809174010E94F514ECEB61
:10517000F4E088E79FE0928B818B8FEC94E096833C
:1051800085831482108289E0818381E08283838316
:1051900008950E940B2908F481E00895E89409C05D
:1051A00097FB3EF490958095709561957F4F8F4F5A
:1051B0009F4F9923A9F0F92F96E9BB279395F69570
:1051C000879577956795B795F111F8CFFAF4BB0FEE
:1051D00011F460FF1BC06F5F7F4F8F4F9F4F16C052
:1051E000882311F096E911C0772321F09EE8872FDC
:1051F000762F05C0662371F096E8862F70E060E098
:105200002AF09A95660F771F881FDAF7880F969510
:10521000879597F90895990F0008550FAA0BE0E8B4
:10522000FEEF16161706E807F907C0F01216130668
:10523000E407F50798F0621B730B840B950B39F4A8
:105240000A2661F0232B242B252B21F408950A260E
:1052500009F4A140A6958FEF811D811D08950E943C
:1052600042290C94B3290E94A52938F00E94AC2948
:1052700020F0952311F00C949C290C94A229112460
:105280000C94E7290E94C42970F3959FC1F3950FF0
:1052900050E0551F629FF001729FBB27F00DB11DBA
:1052A000639FAA27F00DB11DAA1F649F6627B00D4A
:1052B000A11D661F829F2227B00DA11D621F739F33
:1052C000B00DA11D621F839FA00D611D221F749F41
:1052D0003327A00D611D231F849F600D211D822F88
:1052E000762F6A2F11249F5750409AF0F1F08823AF
:1052F0004AF0EE0FFF1FBB1F661F771F881F9150DC
:105300005040A9F79E3F510580F00C949C290C94C5
:10531000E7295F3FE4F3983ED4F386957795679548
:10532000B795F795E7959F5FC1F7FE2B880F911D05
:105330009695879597F9089597F99F6780E870E0AB
:1053400060E008959FEF80EC089500240A941616FB
:10535000170618060906089500240A941216130663
:10536000140605060895092E0394000C11F48823F1
:1053700052F0BB0F40F4BF2B11F460FF04C06F5F0D
:105380007F4F8F4F9F4F089557FD9058440F551FE3
:1053900059F05F3F71F04795880F97FB991F61F0B7
:1053A0009F3F79F087950895121613061406551F2E
:1053B000F2CF4695F1DF08C0161617061806991F9A
:1053C000F1CF86957105610508940895E894BB278F
:1053D00066277727CB0197F90895F999FECF92BDFB
:1053E00081BDF89A992780B50895262FF999FECFA7
:1053F0001FBA92BD81BD20BD0FB6F894FA9AF99AF2
:105400000FBE019608950E94452AA59F900DB49F56
:10541000900DA49F800D911D112408952F923F920D
:105420004F925F926F927F928F929F92AF92BF92B4
:10543000CF92DF92EF92FF920F931F93CF93DF9360
:10544000CDB7DEB7CA1BDB0B0FB6F894DEBF0FBEBD
:10545000CDBF09942A88398848885F846E847D840A
:105460008C849B84AA84B984C884DF80EE80FD800C
:105470000C811B81AA81B981CE0FD11D0FB6F89482
:10548000DEBF0FBECDBFED010895A29FB001B39F57
:10549000C001A39F700D811D1124911DB29F700D3D
:1054A000811D1124911D0895A1E21A2EAA1BBB1B78
:1054B000FD010DC0AA1FBB1FEE1FFF1FA217B307E0
:1054C000E407F50720F0A21BB30BE40BF50B661FF6
:1054D000771F881F991F1A9469F7609570958095BA
:1054E00090959B01AC01BD01CF010895052E97FB5E
:1054F0001EF400940E948D2A57FD07D00E94542A62
:1055000007FC03D04EF40C948D2A509540953095AD
:1055100021953F4F4F4F5F4F08959095809570951F
:1055200061957F4F8F4F9F4F0895EE0FFF1F05909E
:10553000F491E02D09940E94452A332312F48A1B2A
:105540009B0B0C94A52A0E94452AB7FF0895821B45
:10555000930B08952A0D3B1D4C1D5D1D6E1D7F1D77
:10556000801F911F08955058BB27AA270E94CB2A5D
:105570000C94B3290E94A52938F00E94AC2920F090
:1055800039F49F3F19F426F40C94A2290EF4E09507
:10559000E7FB0C949C29E92F0E94C42958F3BA1701
:1055A000620773078407950720F079F4A6F50C9439
:1055B000E6290EF4E0950B2EBA2FA02D0B01B901B0
:1055C00090010C01CA01A0011124FF27591B99F079
:1055D000593F50F4503E68F11A16F040A22F232F85
:1055E000342F4427585FF3CF469537952795A795D5
:1055F000F0405395C9F77EF41F16BA0B620B730B7C
:10560000840BBAF09150A1F0FF0FBB1F661F771FEC
:10561000881FC2F70EC0BA0F621F731F841F48F4A1
:10562000879577956795B795F7959E3F08F0B0CF2A
:105630009395880F08F09927EE0F97958795089511
:105640000E94232CE3950C944C2C0E94392B0C9433
:10565000B3290E94AC2958F00E94A52940F029F4F2
:105660005F3F29F00C949C2951110C94E7290C946C
:10567000A2290E94C42968F39923B1F3552391F319
:10568000951B550BBB27AA2762177307840738F0B1
:105690009F5F5F4F220F331F441FAA1FA9F335D00E
:1056A0000E2E3AF0E0E832D091505040E695001CC2
:1056B000CAF72BD0FE2F29D0660F771F881FBB1F7C
:1056C000261737074807AB07B0E809F0BB0B802D5A
:1056D000BF01FF2793585F4F3AF09E3F510578F086
:1056E0000C949C290C94E7295F3FE4F3983ED4F393
:1056F000869577956795B795F7959F5FC9F7880F5A
:10570000911D9695879597F90895E1E0660F771FAB
:10571000881FBB1F621773078407BA0720F0621B3C
:10572000730B840BBA0BEE1F88F7E09508950E9467
:105730009E2B6894B1110C94E72908950E94CC29FE
:1057400088F09F5798F0B92F9927B751B0F0E1F042
:10575000660F771F881F991F1AF0BA95C9F714C0F2
:10576000B13091F00E94E629B1E008950C94E62949
:10577000672F782F8827B85F39F0B93FCCF386952B
:1057800077956795B395D9F73EF490958095709588
:1057900061957F4F8F4F9F4F089597FB16F40E949E
:1057A000112C0C94D42BE894F92F96EBFF2381F065
:1057B000121613061406440B9395F6958795779564
:1057C000679557954040FF23B9F71BC09927089567
:1057D000882351F49850D2F7872B762F652F542FBA
:1057E000432F322F20E0B1F3121613061406440B98
:1057F00088233AF09A95440F551F661F771F881F1C
:10580000CAF755234AF4440F551F11F460FF04C032
:105810006F5F7F4F8F4F9F4F880F9695879597F9B2
:105820000895909580957095609550954095309528
:1058300021953F4F4F4F5F4F6F4F7F4F8F4F9F4F80
:1058400008950C94A2290E94CC29D8F3E894E0E0B2
:10585000BB279F57F0F02AED3FE049EC06C0EE0F62
:10586000BB0F661F771F881F28F0B23A62077307C5
:10587000840728F0B25A620B730B840BE3959A9558
:1058800072F7803830F49A95BB0F661F771F881F18
:10589000D2F790480C94BA2CEF93E0FF07C0A2EA2D
:1058A0002AED3FE049EC5FEB0E94CB2A0E94B3292E
:1058B0000F90039401FC9058E6E9F0E00C94CD2C95
:1058C0000E940B2908F48FEF08959F930E94232CC8
:1058D0000F9007FCEE5F0C944C2C19F416F40C940A
:1058E000A2290C94B82C0E94CC29B8F39923C9F3AF
:1058F000B6F39F57550B87FF0E94C62C0024A0E6E5
:1059000040EA900180585695979528F4805C660F80
:10591000771F881F20F026173707480730F4621BCF
:10592000730B840B202931294A2BA69517940794D1
:10593000202531254A2758F7660F771F881F20F04A
:1059400026173707480730F4620B730B840B200DC2
:10595000311D411DA09581F7B901842F9158880F01
:105960009695879508950E940B29880B990B0895A9
:105970009F3F31F0915020F4879577956795B795C3
:10598000880F911D9695879597F9089591505040ED
:10599000660F771F881FD2F708959F938F937F9389
:1059A0006F93FF93EF939B01AC010E942F29EF911E
:1059B000FF910E94E12C2F913F914F915F910C94A8
:1059C0002F29DF93CF931F930F93FF92EF92DF92D4
:1059D0007B018C01689406C0DA2EEF010E944229F7
:1059E000FE01E894A5912591359145915591A6F335
:1059F000EF010E94CB2AFE019701A801DA9469F712
:105A0000DF90EF90FF900F911F91CF91DF9108955C
:105A10000F931F93CF93DF938230910510F482E0B0
:105A200090E0E091EC04F091ED0420E030E0A0E0A3
:105A3000B0E0309719F140815181028113814817FC
:105A40005907C8F08417950769F4109731F012963A
:105A50000C93129713961C9327C00093EC04109399
:105A6000ED0422C02115310519F04217530718F42F
:105A70009A01BD01EF01DF01F801DBCF21153105EE
:105A8000F9F0281B390B2430310580F48A819B8181
:105A90006115710521F0FB019383828304C090930B
:105AA000ED048093EC04FE01329644C0FE01E20F47
:105AB000F31F8193919322503109398328833AC08F
:105AC0002091EA043091EB04232B41F420917701DB
:105AD000309178013093EB042093EA042091750112
